:0400000081EF00F09C
:100008004B82FACF28F0FBCF29F0E9CF2AF0EACFCC
:100018002BF0E1CF2CF0E2CF2DF0D9CF2EF0DACFB4
:100028002FF0F3CF30F0F4CF31F0F6CF32F0F7CF36
:1000380033F0F8CF34F0F5CF35F04BC036F04CC084
:1000480037F04DC038F04EC039F0F2AC30D0A0B621
:10005800A1A608D001D82BD00500FA6E1350FD6E6A
:10006800145020D09DB69EA608D001D820D00500F7
:10007800FA6E1150FD6E125015D09DB89EA808D08A
:1000880001D815D00500FA6E4850FD6E49500AD0C7
:100098009DBA9EAA0CD001D80AD00500FA6E465027
:1000A800FD6E4750FE6EF850FF6EFA50120039C0D0
:1000B8004EF038C04DF037C04CF036C04BF035C06C
:1000C800F5FF34C0F8FF33C0F7FF32C0F6FF31C088
:1000D800F4FF30C0F3FF2FC0DAFF2EC0D9FF2DC0C8
:1000E800E2FF2CC0E1FF2BC0EAFF2AC0E9FF29C0CC
:0E00F800FBFF28C0FAFF4B921100BEEF06F08E
:10060000000A000D000005EC08F0F28EF28C22ECDE
:1006100005F01AEC04F020EEE3F0050EEBCFDBFF63
:10062000E806FCE2030E0001E26F080EE16F770EB0
:10063000E82EFED7E12FFCD7E22FFAD70001E351D5
:10064000E1EC06F01A0E0001E16FF80EE82EFED77D
:10065000E12FFCD700F00001E451E1EC06F01A0EA6
:100660000001E16FF80EE82EFED7E12FFCD700F075
:100670000001E551E1EC06F01A0E0001E16FF80E01
:10068000E82EFED7E12FFCD700F00001E651E1ECA7
:1006900006F01A0E0001E16FF80EE82EFED7E12FEA
:1006A000FCD700F00001E751E1EC06F01A0E000162
:1006B000E16FF80EE82EFED7E12FFCD700F0000125
:1006C000E851E1EC06F01A0E0001E16FF80EE82E99
:1006D000FED7E12FFCD700F0030E3C6E060E3D6EF8
:1006E0005BEC07F01A0E0001E16FF80EE82EFED762
:1006F000E12FFCD700F0010E3C6E060E3D6E5BEC68
:1007000007F087D73D6E010E3C6E0001B6B31200B4
:100710003DC0B7F0B691B683B6970E0EC06F010E0E
:10072000BF6FF40EBE6FB685820EC26F110EC36F1F
:10073000000ECE6F000ECF6F820EC46F110EC56F0C
:10074000000ED06F000ED16F820EC66F110EC76FF4
:10075000000ED26F000ED36F820EC86F110EC96FDC
:10076000000ED46F000ED56F780ECA6F110ECB6FCE
:10077000000ED66F000ED76FAEEC07F00DEC09F04F
:10078000F40E3A6E110E3B6EB7EC08F0BC0E3A6EEA
:100790000B0E3B6EB2EC08F0000E3C6E12004BB23A
:1007A00063EF04F0E5EC07F0D8B00AD026D089EC6E
:1007B00008F0120082EC08F0120074EC08F012004D
:1007C000D4C03AF0D5C03BF020EEC8F001D80AD032
:1007D0000500FA6EDE50FD6EDE50FE6EF850FF6EC4
:1007E000FA501200010AD8B4E8D7030AD8B4DFD708
:1007F000010AD8B4DFD7070AE0D70001B697B8C01E
:10080000D9FFB9C0DAFFB84BB92BDF50CAEC08F0FA
:100810000001BA07D8A0BB07BA51BB11D8A404D0B5
:10082000000E3C6E060E03D0000E3C6E030E3B6EB7
:100830003B5012001D0E82EC03F01D0E3A6E000EAE
:100840003B6E000E3D6E060E3C6E94EC07F0010E02
:1008500058EC08F0156E85EC07F0156E1DC0DBF046
:100860000001DC6BDB51DC6FDB6B1E50DB13DC3516
:10087000DC33DB33DC35DC33DB331FC0DDF0DE6B38
:10088000DD51DE6FDD6B2050DD13DE35DE33DD3311
:10089000DE35DE33DD3321C0DFF0E06BDF51E06FAA
:1008A000DF6B2250DF13E035E033DF33E035E03338
:1008B000DF3320EEDBF000EE40F0050EDBCFEBFF88
:1008C000E806FCE21200F0EC07F0D8B00AD026D01F
:1008D000E6EC08F01200E2EC08F01200DAEC08F0A6
:1008E0001200D4C026F0D5C027F020EEC8F001D801
:1008F0000AD00500FA6EDE50FD6EDE50FE6EF85036
:10090000FF6EFA501200010AD8B4E8D7030AD8B42F
:10091000DFD7010AD8B4DFD7070AE0D70001B697BE
:10092000B8C0D9FFB9C0DAFFB84BB92BDF50EAEC39
:1009300008F00001BA07D8A0BB07BA51BB11D8A470
:1009400004D0000E276E060E03D0000E276E030E95
:10095000266E265012004BB2E8EF04F001EC09F0CD
:10096000B8C0D9FFB9C0DAFFDF6E0001B84BB92BB0
:10097000BA07D8A0BB07BA51BB11D8B404D0F1EC68
:1009800008F0050E1200B68506D05FEC08F01200E4
:1009900066EC08F01200CEC03AF0CFC03BF020EE7B
:1009A000C2F001D80AD00500FA6EDE50FD6EDE50AE
:1009B000FE6EF850FF6EFA501200010AD8B4E8D764
:1009C000030AD8B4E2D7010AD8B4DFD7070AE0D7C0
:1009D00013EC09F0B8C0D9FFB9C0DAFFDF6E00012F
:1009E000B84BB92BBA07D8A0BB07BA51BB11D8B4C2
:1009F00004D0F7EC08F0050E1200B68506D0CEEC58
:100A000008F01200D2EC08F01200CEC026F0CFC0E1
:100A100027F020EEC2F001D80AD00500FA6EDE50B1
:100A2000FD6EDE50FE6EF850FF6EFA501200010AA5
:100A3000D8B4E8D7030AD8B4E2D7010AD8B4DFD7CC
:100A4000070AE0D7400E3F6E2B0EFEEC06F0030EB9
:100A5000426E080E416E770EE82EFED7412EFCD76F
:100A6000422EFAD700F02B0E17EC07F0416E41BC76
:100A7000FAD7010E3F6E0E0EFEEC06F0020E3F6E30
:100A80002B0EFEEC06F0010E3F6E2D0EFEEC06F076
:100A9000010E3F6E2E0EFEEC06F0400E3F6E110E64
:100AA000FEEC06F0050E3F6E2A0EFEEC06F012007C
:100AB0004BB287EF05F00001B6850AD07BEC08F059
:100AC0001200FFEC08F0030E120074EC08F01200A4
:100AD000CEC03AF0CFC03BF020EEC2F001D80AD031
:100AE0000500FA6EDE50FD6EDE50FE6EF850FF6EB1
:100AF000FA501200010AD8B4E8D7030AD8B4DED7F6
:100B0000010AD8B4DBD7070AD8B4DBD7DED7000197
:100B1000B6850AD0DEEC08F0120011EC09F0030EE5
:100B20001200DAEC08F01200CEC026F0CFC027F099
:100B300020EEC2F001D80AD00500FA6EDE50FD6E3C
:100B4000DE50FE6EF850FF6EFA501200010AD8B463
:100B5000E8D7030AD8B4DED7010AD8B4DBD7070A2E
:100B6000D8B4DBD7DED70A0D474F5420484552454D
:100B70002E200A0D00000000000000000000000010
:100B80000000000000000000000000000000000065
:100B9000000000000000000040109E0F720F9E0732
:100BA00056092E10B00A12110411F610E810DA10CE
:100BB000CC10BE10B40F0A0C880FF60F4BB276EFB4
:100BC00006F00DEC09F00001B6A707D0E5EC07F040
:100BD000D8A003D00F0E0001C06F0001C051020D5C
:100BE000920EF324D96E000EF420DA6E01D80AD0EA
:100BF0000500FA6EDE50FD6EDE50FE6EF850FF6EA0
:100C0000FA5012000001C06F12004BB29AEF06F0CA
:100C10000001B697020EC16F06D07BEC08F01200FF
:100C200074EC08F01200D2C03AF0D3C03BF020EED2
:100C3000C6F001D80AD00500FA6EDE50FD6EDE5017
:100C4000FE6EF850FF6EFA501200020AD8B4E5D7D3
:100C5000010AD8B4E2D7E4D79D9A9D985C0E3A6E0B
:100C60000E0E3B6EA8EC08F08A0E3A6E0E0E3B6E2E
:100C7000ADEC08F0080EB86E900EAB6E240EAC6EA4
:100C8000220EAF6E000EB06E000E1C6E000E1B6EBC
:100C9000080E4A6E000E1A6E000E196E000E186EC7
:100CA0009D8A12003D6E010E3E6E0001B6B11CD051
:100CB000B681000E3E6E07D0010E03D0100E01D09B
:100CC000020EC06F0AD03D50000AD8B4F5D7010A11
:100CD000D8B4F4D7030AD8B4F3D709EC09F029EC57
:100CE00008F0D8A0A1EC07F03E5012000FEC09F07C
:100CF0000001B6A707D0F0EC07F0D8A003D00F0E84
:100D00000001C06F0001C051020D920EF324D96E94
:100D1000000EF420DA6E01D80AD00500FA6EDE501B
:100D2000FD6EDE50FE6EF850FF6EFA5012000001AC
:100D3000C06F12000001B697020EC16F06D0DEEC44
:100D400008F01200DAEC08F01200D2C026F0D3C08E
:100D500027F020EEC6F001D80AD00500FA6EDE506A
:100D6000FD6EDE50FE6EF850FF6EFA501200020A61
:100D7000D8B4E5D7010AD8B4E2D7E4D7660EF66E48
:100D80000B0EF76E000EF86E00EE60F010EE56F0EF
:100D90000900F5CFEEFFE550E150FAE100EEB6F0C4
:100DA000250EEE6AE806FDE100EE01F0250EEE6A82
:100DB000E806FDE14B904B92000EF86E000103EF48
:100DC00003F03A6E4A50D8B4FDD79DB803D03AC06C
:100DD000ADFF12D09D981C50010D090EF324D96E61
:100DE000000EF420DA6E3AC0DFFF1C2A070E1C64E6
:100DF00002D0000E1C6E4A069D881200406E40C054
:100E000023F03FC024F01D0E82EC03F0230E3A6E57
:100E1000000E3B6E000E3D6E020E3C6E94EC07F031
:100E2000C6EC08F0176E85EC07F0176E1200406EE6
:100E30001D0E82EC03F0250E3A6E000E3B6E000E86
:100E40003D6E010E3C6E94EC07F0405058EC08F0FB
:100E5000166E85EC07F0166E25501200080E4A60DB
:100E600012D01B50010D090EF324D96E000EF42090
:100E7000DA6EDF50AD6E1B2A070E1B6402D0000E27
:100E80001B6E4A2A12009D981200ABA202D0AB98AA
:100E9000AB881A50010D010EF324D96E000EF42018
:100EA000DA6EAECFDFFF1A2A070E1A6402D0000EE8
:100EB0001A6E182A12003E0E3E6E000E3F6E03D0D0
:100EC0004050A3EC08F03CC0F6FF3DC0F7FF3C4AA1
:100ED0003D2A0800F5CF40F04050D8B41200F0D7BA
:100EE000000E896E000E8A6E000E8B6E92689368FB
:100EF000BF0E946E240E0F013A6F3F0E396F2F0E06
:100F0000386F000E616EF18E1200010E3A6E000114
:100F1000B6B108D0B693B7690DEC09F00BEC09F047
:100F2000C1C03AF03A5012000001B6A512003AC012
:100F3000B8F03BC0B9F03CC0BAF03DC0BBF0B695CC
:100F4000120008D0000E3A6E000E3B6E0EEC08F058
:100F5000DEEC05F00001B6A11200F4D7C6BA12000B
:100F6000000EC76E280EC66E000EC56E270EC86E28
:100F700012004BB231EF08F00001B687B751B72528
:100F8000CAEC08F0030E12004BB239EF08F0000172
:100F9000B687B751B725CAEC08F0110E12004BB254
:100FA00041EF08F00001B687D880B735CAEC08F0E9
:100FB000050E12004BB249EF08F021EC09F00001D8
:100FC000B691000EC16F0E0E1200C550BF0B400946
:100FD000C56EC538E832E832010B3A6E3A3012007D
:100FE000C550BF0B4009C56EC538E832E832010B69
:100FF000266E263012004BB290EF08F00001B68743
:10100000DA51CAEC08F0070E1200FDEC08F070ECA3
:1010100007F051EC08F02CEC06F012009EB612001E
:101020009EB61200850EE82EFED700F0F9D74BB21F
:1010300097EF08F00001B69703EC09F0040E1200D8
:101040004BB29DEF08F00001B691000EC16F0E0E7D
:1010500012009DA603D03A6A3A2A01D03A6A3A3081
:1010600012000001B687B751B725EAEC08F0030E6D
:1010700012000001B687B751B725EAEC08F0110E4F
:1010800012000001B687D880B735EAEC08F0050EEB
:10109000120022EC09F00001B691000EC16F0E0E95
:1010A0001200720ED36E040ED26E400E9B6E1200B2
:1010B0003F6E3FC0DAF0010E52EC06F012004BB268
:1010C000CEEF08F0EEEC08F0090E12004BB2D2EFB2
:1010D00008F0EEEC08F00A0E12004BB2D6EF08F062
:1010E000F1EC08F0050E12004BB2DAEF08F005EC57
:1010F00009F0000E12004BB2DEEF08F007EC09F029
:10110000010E12004BB2E2EF08F007EC09F0020EFC
:1011100012004BB2E6EF08F007EC09F0010E1200E6
:101120000001B687DA51EAEC08F0070E1200000160
:10113000B69715EC09F0040E12000001B691000EEE
:10114000C16F0E0E12003B6E3B50E1EC06F0120038
:101150003AC048F03BC049F012003AC046F03BC0EC
:1011600047F012003AC011F03BC012F012003AC032
:1011700013F03BC014F012004BB217EF09F0050E4C
:1011800012004BB219EF09F0010E1200020E52ECE0
:1011900006F012003A6E3AC0C9FF1200F4EC08F0F3
:1011A000090E1200F4EC08F00A0E1200F7EC08F039
:1011B000050E12001BEC09F0000E12001DEC09F0E8
:1011C000010E12001DEC09F0020E12001DEC09F0D8
:1011D000010E1200266E26C0C9FF1200C58AC588FE
:1011E0001200C59AC5881200C58AC5881200C59A22
:1011F000C58812001FEC09F01200D09E12009E86D6
:101200001200C9501200C5861200C5841200C582A2
:101210001200C58012009D9612009E9612009E96A6
:1012200012009E861200C9501200C5861200050EDB
:101230001200010E1200C5841200C5821200A19690
:0612400012001200120072
:020000040020DA
:08000000FFFFFFFFFFFFFFFF00
:020000040030CA
:0E000000FF281F3CFFBF85FF0FC00FE00F4021
:00000001FF
