:0400000081EF00F09C
:100008004B82FACF28F0FBCF29F0E9CF2AF0EACFCC
:100018002BF0E1CF2CF0E2CF2DF0D9CF2EF0DACFB4
:100028002FF0F3CF30F0F4CF31F0F6CF32F0F7CF36
:1000380033F0F8CF34F0F5CF35F04BC036F04CC084
:1000480037F04DC038F04EC039F0F2AC30D0A0B621
:10005800A1A608D001D82BD00500FA6E1350FD6E6A
:10006800145020D09DB69EA608D001D820D00500F7
:10007800FA6E1150FD6E125015D09DB89EA808D08A
:1000880001D815D00500FA6E4850FD6E49500AD0C7
:100098009DBA9EAA0CD001D80AD00500FA6E465027
:1000A800FD6E4750FE6EF850FF6EFA50120039C0D0
:1000B8004EF038C04DF037C04CF036C04BF035C06C
:1000C800F5FF34C0F8FF33C0F7FF32C0F6FF31C088
:1000D800F4FF30C0F3FF2FC0DAFF2EC0D9FF2DC0C8
:1000E800E2FF2CC0E1FF2BC0EAFF2AC0E9FF29C0CC
:0E00F800FBFF28C0FAFF4B921100AFEF06F09D
:05060000000D0A0000DE
:10060600F6EC07F0F28EF28C13EC05F00BEC04F02E
:1006160020EEE3F0050EEBCFDBFFE806FCE2030E6F
:100626000001E26F080EE16F770EE82EFED7E12F8C
:10063600FCD7E22FFAD70001E351D2EC06F01A0EEE
:100646000001E16FF80EE82EFED7E12FFCD700F08F
:100656000001E451D2EC06F01A0E0001E16FF80E2B
:10066600E82EFED7E12FFCD700F00001E551D2ECD1
:1006760006F01A0E0001E16FF80EE82EFED7E12F04
:10068600FCD700F00001E651D2EC06F01A0E00018C
:10069600E16FF80EE82EFED7E12FFCD700F000013F
:1006A600E751D2EC06F01A0E0001E16FF80EE82EC3
:1006B600FED7E12FFCD700F00001E851D2EC06F09E
:1006C6001A0E0001E16FF80EE82EFED7E12FFCD7D7
:1006D60000F0010E3C6E060E3D6E4CEC07F096D710
:1006E6003D6E010E3C6E0001B6B312003DC0B7F080
:1006F600B691B683B6970E0EC06F010EBF6FF40E9D
:10070600BE6FB685640EC26F110EC36F000ECE6F3C
:10071600000ECF6F640EC46F110EC56F000ED06F42
:10072600000ED16F640EC66F110EC76F000ED26F2A
:10073600000ED36F640EC86F110EC96F000ED46F12
:10074600000ED56F5A0ECA6F110ECB6F000ED66F04
:10075600000ED76F9FEC07F0FEEC08F0D60E3A6E4F
:10076600110E3B6EA8EC08F09E0E3A6E0B0E3B6E19
:10077600A3EC08F0000E3C6E12004BB254EF04F0EE
:10078600D6EC07F0D8B00AD026D07AEC08F01200E2
:1007960073EC08F0120065EC08F01200D4C03AF0D1
:1007A600D5C03BF020EEC8F001D80AD00500FA6E9D
:1007B600DE50FD6EDE50FE6EF850FF6EFA501200EF
:1007C600010AD8B4E8D7030AD8B4DFD7010AD8B4E7
:1007D600DFD7070AE0D70001B697B8C0D9FFB9C07E
:1007E600DAFFB84BB92BDF50BBEC08F00001BA07B3
:1007F600D8A0BB07BA51BB11D8A404D0000E3C6EDA
:10080600060E03D0000E3C6E030E3B6E3B501200EC
:100816001D0E73EC03F01D0E3A6E000E3B6E000EBD
:100826003D6E060E3C6E85EC07F0010E49EC08F0B5
:10083600156E76EC07F0156E1DC0DBF00001DC6B63
:10084600DB51DC6FDB6B1E50DB13DC35DC33DB335B
:10085600DC35DC33DB331FC0DDF0DE6BDD51DE6FF4
:10086600DD6B2050DD13DE35DE33DD33DE35DE3382
:10087600DD3321C0DFF0E06BDF51E06FDF6B22502C
:10088600DF13E035E033DF33E035E033DF3320EEEE
:10089600DBF000EE40F0050EDBCFEBFFE806FCE2F6
:1008A6001200E1EC07F0D8B00AD026D0D7EC08F059
:1008B6001200D3EC08F01200CBEC08F01200D4C002
:1008C60026F0D5C027F020EEC8F001D80AD00500E2
:1008D600FA6EDE50FD6EDE50FE6EF850FF6EFA5078
:1008E6001200010AD8B4E8D7030AD8B4DFD7010A40
:1008F600D8B4DFD7070AE0D70001B697B8C0D9FF4A
:10090600B9C0DAFFB84BB92BDF50DBEC08F00001B9
:10091600BA07D8A0BB07BA51BB11D8A404D0000EA1
:10092600276E060E03D0000E276E030E266E265087
:1009360012004BB2D9EF04F0F2EC08F0B8C0D9FFC0
:10094600B9C0DAFFDF6E0001B84BB92BBA07D8A0E1
:10095600BB07BA51BB11D8B404D0E2EC08F0050EBF
:100966001200B68506D050EC08F0120057EC08F0DD
:100976001200CEC03AF0CFC03BF020EEC2F001D854
:100986000AD00500FA6EDE50FD6EDE50FE6EF8509F
:10099600FF6EFA501200010AD8B4E8D7030AD8B499
:1009A600E2D7010AD8B4DFD7070AE0D704EC09F08A
:1009B600B8C0D9FFB9C0DAFFDF6E0001B84BB92B5A
:1009C600BA07D8A0BB07BA51BB11D8B404D0E8EC1B
:1009D60008F0050E1200B68506D0BFEC08F012002E
:1009E600C3EC08F01200CEC026F0CFC027F020EEF0
:1009F600C2F001D80AD00500FA6EDE50FD6EDE5058
:100A0600FE6EF850FF6EFA501200010AD8B4E8D70D
:100A1600030AD8B4E2D7010AD8B4DFD7070AE0D769
:100A2600400E3F6E2B0EEFEC06F0030E426E080EE4
:100A3600416E770EE82EFED7412EFCD7422EFAD70E
:100A460000F02B0E08EC07F0416E41BCFAD7010E00
:100A56003F6E0E0EEFEC06F0020E3F6E2B0EEFEC25
:100A660006F0010E3F6E2D0EEFEC06F0010E3F6E06
:100A76002E0EEFEC06F0400E3F6E110EEFEC06F078
:100A8600050E3F6E2A0EEFEC06F012004BB278EF21
:100A960005F00001B6850AD06CEC08F01200F0EC07
:100AA60008F0030E120065EC08F01200CEC03AF012
:100AB600CFC03BF020EEC2F001D80AD00500FA6E96
:100AC600DE50FD6EDE50FE6EF850FF6EFA501200DC
:100AD600010AD8B4E8D7030AD8B4DED7010AD8B4D5
:100AE600DBD7070AD8B4DBD7DED70001B6850AD034
:100AF600CFEC08F0120002EC09F0030E1200CBEC6A
:100B060008F01200CEC026F0CFC027F020EEC2F0CB
:100B160001D80AD00500FA6EDE50FD6EDE50FE6E7C
:100B2600F850FF6EFA501200010AD8B4E8D7030A4B
:100B3600D8B4DED7010AD8B4DBD7070AD8B4DBD7D6
:100B4600DED70A0D474F5420484552452E200A0D40
:100B5600000000000000000000000000000000008F
:100B6600000000000000000000000000000000007F
:100B7600000000002210800F540F80073809101063
:100B8600920AF410E610D810CA10BC10AE10A010CD
:100B9600960FEC0B6A0FD80F4BB267EF06F0FEEC20
:100BA60008F00001B6A707D0D6EC07F0D8A003D00E
:100BB6000F0E0001C06F0001C051020D920EF3240A
:100BC600D96E000EF420DA6E01D80AD00500FA6E4E
:100BD600DE50FD6EDE50FE6EF850FF6EFA501200CB
:100BE6000001C06F12004BB28BEF06F00001B69702
:100BF600020EC16F06D06CEC08F0120065EC08F02E
:100C06001200D2C03AF0D3C03BF020EEC6F001D8B5
:100C16000AD00500FA6EDE50FD6EDE50FE6EF8500C
:100C2600FF6EFA501200020AD8B4E5D7010AD8B40A
:100C3600E2D7E4D79D9A9D983E0E3A6E0E0E3B6E15
:100C460099EC08F06C0E3A6E0E0E3B6E9EEC08F0B8
:100C5600080EB86E900EAB6E240EAC6E220EAF6E02
:100C6600000EB06E000E1C6E000E1B6E080E4A6E55
:100C7600000E1A6E000E196E000E186E9D8A120076
:100C86003D6E010E3E6E0001B6B11CD0B681000E5F
:100C96003E6E07D0010E03D0100E01D0020EC06FBB
:100CA6000AD03D50000AD8B4F5D7010AD8B4F4D713
:100CB600030AD8B4F3D7FAEC08F01AEC08F0D8A077
:100CC60092EC07F03E50120000EC09F00001B6A7C6
:100CD60007D0E1EC07F0D8A003D00F0E0001C06FDB
:100CE6000001C051020D920EF324D96E000EF420BD
:100CF600DA6E01D80AD00500FA6EDE50FD6EDE50BF
:100D0600FE6EF850FF6EFA5012000001C06F12001E
:100D16000001B697020EC16F06D0CFEC08F01200A4
:100D2600CBEC08F01200D2C026F0D3C027F020EE9C
:100D3600C6F001D80AD00500FA6EDE50FD6EDE5010
:100D4600FE6EF850FF6EFA501200020AD8B4E5D7CC
:100D5600010AD8B4E2D7E4D7480EF66E0B0EF76E4A
:100D6600000EF86E00EE60F010EE56F00900F5CFBA
:100D7600EEFFE550E150FAE100EEB6F0250EEE6A20
:100D8600E806FDE100EE01F0250EEE6AE806FDE15B
:100D96004B904B92000EF86E000103EF03F03A6E93
:100DA6004A50D8B4FDD79DB803D03AC0ADFF12D093
:100DB6009D981C50010D090EF324D96E000EF420E7
:100DC600DA6E3AC0DFFF1C2A070E1C6402D0000E42
:100DD6001C6E4A069D881200406E40C023F03FC03C
:100DE60024F01D0E73EC03F0230E3A6E000E3B6EDC
:100DF600000E3D6E020E3C6E85EC07F0B7EC08F077
:100E0600176E76EC07F0176E1200406E1D0E73EC2F
:100E160003F0250E3A6E000E3B6E000E3D6E010E7F
:100E26003C6E85EC07F0405049EC08F0166E76EC07
:100E360007F0166E25501200080E4A6012D01B509D
:100E4600010D090EF324D96E000EF420DA6EDF5080
:100E5600AD6E1B2A070E1B6402D0000E1B6E4A2ABB
:100E660012009D981200ABA202D0AB98AB881A5024
:100E7600010D010EF324D96E000EF420DA6EAECF0A
:100E8600DFFF1A2A070E1A6402D0000E1A6E182AFD
:100E960012003E0E3E6E000E3F6E03D0405094ECA4
:100EA60008F03CC0F6FF3DC0F7FF3C4A3D2A08006B
:100EB600F5CF40F04050D8B41200F0D7000E896E3E
:100EC600000E8A6E000E8B6E92689368BF0E946E4B
:100ED600240E0F013A6F3F0E396F2F0E386F000E3A
:100EE600616EF18E1200010E3A6E0001B6B108D0A5
:100EF600B693B769FEEC08F0FCEC08F0C1C03AF016
:100F06003A5012000001B6A512003AC0B8F03BC034
:100F1600B9F03CC0BAF03DC0BBF0B695120008D09F
:100F2600000E3A6E000E3B6EFFEC07F0CFEC05F0BC
:100F36000001B6A11200F4D7C6BA1200000EC76EA1
:100F4600280EC66E000EC56E270EC86E12004BB276
:100F560022EF08F00001B687B751B725BBEC08F0C1
:100F6600030E12004BB22AEF08F00001B687B75104
:100F7600B725BBEC08F0110E12004BB232EF08F0A9
:100F86000001B687D880B735BBEC08F0050E120015
:100F96004BB23AEF08F012EC09F00001B691000EE0
:100FA600C16F0E0E1200C550BF0B4009C56EC53885
:100FB600E832E832010B3A6E3A301200C550BF0BE8
:100FC6004009C56EC538E832E832010B266E263078
:100FD60012004BB281EF08F00001B687DA51BBEC84
:100FE60008F0070E1200EEEC08F061EC07F042EC98
:100FF60008F01DEC06F012009EB612009EB6120016
:10100600850EE82EFED700F0F9D74BB288EF08F030
:101016000001B697F4EC08F0040E12004BB28EEF06
:1010260008F00001B691000EC16F0E0E12009DA6CB
:1010360003D03A6A3A2A01D03A6A3A3012000001DD
:10104600B687B751B725DBEC08F0030E1200000196
:10105600B687B751B725DBEC08F0110E1200000178
:10106600B687D880B735DBEC08F0050E120013EC16
:1010760009F00001B691000EC16F0E0E1200720E3D
:10108600D36E040ED26E400E9B6E12003F6E3FC0B2
:10109600DAF0010E43EC06F012004BB2BFEF08F097
:1010A600DFEC08F0090E12004BB2C3EF08F0DFECDC
:1010B60008F00A0E12004BB2C7EF08F0E2EC08F097
:1010C600050E12004BB2CBEF08F0F6EC08F0000E5E
:1010D60012004BB2CFEF08F0F8EC08F0010E120048
:1010E6004BB2D3EF08F0F8EC08F0020E12004BB248
:1010F600D7EF08F0F8EC08F0010E12000001B687F1
:10110600DA51DBEC08F0070E12000001B69706EC88
:1011160009F0040E12000001B691000EC16F0E0E0A
:1011260012003B6E3B50D2EC06F012003AC048F07B
:101136003BC049F012003AC046F03BC047F01200EF
:101146003AC011F03BC012F012003AC013F03BC097
:1011560014F012004BB208EF09F0050E12004BB264
:101166000AEF09F0010E1200020E43EC06F012001F
:101176003A6E3AC0C9FF1200E5EC08F0090E1200FB
:10118600E5EC08F00A0E1200E8EC08F0050E120075
:101196000CEC09F0000E12000EEC09F0010E120024
:1011A6000EEC09F0020E12000EEC09F0010E120010
:1011B600266E26C0C9FF1200C58AC5881200C59AC8
:1011C600C5881200C58AC5881200C59AC58812004E
:1011D60010EC09F01200D09E12009E861200C95033
:1011E6001200C5861200C5841200C5821200C58091
:1011F60012009D9612009E9612009E9612009E86E2
:101206001200C9501200C5861200050E1200010E0A
:101216001200C5841200C5821200A19612001200A7
:021226001200B4
:020000040020DA
:08000000FFFFFFFFFFFFFFFF00
:020000040030CA
:0E000000FF281F3CFFBF85FF0FC00FE00F4021
:00000001FF
