:0400000083EF00F09A
:100008004A82FACF28F0FBCF29F0E9CF2AF0EACFCD
:100018002BF0E1CF2CF0E2CF2DF0D9CF2EF0DACFB4
:100028002FF0F3CF30F0F4CF31F0F6CF32F0F7CF36
:1000380033F0F8CF34F0F5CF35F04AC036F04BC086
:1000480037F04CC038F04DC039F0F2AC32D0A0B621
:10005800A1A608D001D82DD00500FA6E1350FD6E68
:10006800145022D09DB69EA608D001D822D00500F3
:10007800FA6E1150FD6E125017D09DB89EA809D087
:1000880001D817D005000001FA6EE551FD6EE65162
:100098000BD09DBA9EAA0DD001D80BD00500000147
:1000A800FA6EE351FD6EE451FE6EF850FF6EFA50A1
:1000B800120039C04DF038C04CF037C04BF036C094
:1000C8004AF035C0F5FF34C0F8FF33C0F7FF32C03F
:1000D800F6FF31C0F4FF30C0F3FF2FC0DAFF2EC0A7
:1000E800D9FF2DC0E2FF2CC0E1FF2BC0EAFF2AC0D8
:1000F800E9FF29C0FBFF28C0FAFF4A921100AEEFC2
:0201080005F000
:100600000001000A006400E8031027256425642522
:1006100064000D0A0000620E0001686F000E696F31
:1006200081D0250E6E19D8B404D06E516EEC09F04D
:1006300079D0000E00016A6F60C0F6FF61C0F7FF5D
:10064000604B612B0800F5CF6EF06E51000AD8B4F4
:100650001200640AD8B403D00D0AD8A463D068C0CD
:10066000D9FF69C0DAFFDECF6CF0DDCF6DF0020E8E
:100670006827000E69236DAF06D0030E6A136C6DF8
:100680006D1FD8B06D2B010E6E6F050E6E19D8B4AC
:1006900012D06E51020D010EF324F66E060EF420F8
:1006A000F76E0900F5506C5D0900F5506D59D8A042
:1006B00002D06E2BEAD76AC046F0030E4616D8B4B5
:1006C00003D02D0E6EEC09F06EC06BF026D0000149
:1006D0006B51020D010EF324F66E060EF420F76E38
:1006E0000900F5CF3CF00A00F5CF3DF06CC03AF0C0
:1006F0006DC03BF06CEC06F03AC041F03BC042F0FC
:10070000000E446E0A0E436E75EC07F04150300F38
:1007100000016E6F6E516EEC09F000016B076B29E2
:10072000D8A4D5D760C0F6FF61C0F7FF0001604BC9
:10073000612B0800F5CF6EF06E51D8B4120071D75E
:100740003D6E010E3C6E00019AB312003DC09BF05D
:100750009A919A839A970E0EA46F010EA36FF40ECE
:10076000A26F9A85180EA66F130EA76F000EB26FB8
:10077000000EB36F180EA86F130EA96F000EB46FA2
:10078000000EB56F180EAA6F130EAB6F000EB66F8A
:10079000000EB76F180EAC6F130EAD6F000EB86F72
:1007A000000EB96F0E0EAE6F130EAF6F000EBA6F64
:1007B000000EBB6F79EC08F0D8EC09F08A0E3A6EA7
:1007C000130E3B6E82EC09F02A0E3A6E0D0E3B6E54
:1007D0007DEC09F0000E3C6E12004AB281EF04F08D
:1007E000B0EC08F0D8B00AD026D054EC09F01200D2
:1007F0004DEC09F012003FEC09F01200B8C03AF0DD
:10080000B9C03BF020EEACF001D80AD00500FA6E7A
:10081000DE50FD6EDE50FE6EF850FF6EFA50120094
:10082000010AD8B4E8D7030AD8B4DFD7010AD8B48C
:10083000DFD7070AE0D700019A979CC0D9FF9DC077
:10084000DAFF9C4B9D2BDF5095EC09F000019E07D1
:10085000D8A09F079E519F11D8A404D0000E3C6ED3
:10086000060E03D0000E3C6E030E3B6E3B50120092
:100870001D0EA0EC03F01D0E3A6E000E3B6E000E36
:100880003D6E060E3C6E5FEC08F0010E23EC09F0A5
:10089000156E50EC08F0156E1DC060F00001616B24
:1008A0006051616F606B1E5060136135613360335E
:1008B0006135613360331FC062F0636B6251636FF7
:1008C000626B205062136335633362336335633385
:1008D000623321C064F0656B6451656F646B2250B4
:1008E000641365356533643365356533643320EEF1
:1008F00060F000EE40F0050EDBCFEBFFE806FCE217
:100900001200BBEC08F0D8B00AD026D0B1EC09F048
:100910001200ADEC09F01200A5EC09F01200B8C00D
:1009200026F0B9C027F020EEACF001D80AD00500BF
:10093000FA6EDE50FD6EDE50FE6EF850FF6EFA501D
:100940001200010AD8B4E8D7030AD8B4DFD7010AE5
:10095000D8B4DFD7070AE0D700019A979CC0D9FF27
:100960009DC0DAFF9C4B9D2BDF50B5EC09F00001D8
:100970009E07D8A09F079E519F11D8A404D0000EB7
:10098000276E060E03D0000E276E030E266E26502D
:1009900012004AB206EF05F0CCEC09F09CC0D9FF7A
:1009A0009DC0DAFFDF6E00019C4B9D2B9E07D8A0F7
:1009B0009F079E519F11D8B404D0BCEC09F0050EDE
:1009C00012009A8506D02AEC09F0120031EC09F0E9
:1009D0001200B2C03AF0B3C03BF020EEA6F001D84E
:1009E0000AD00500FA6EDE50FD6EDE50FE6EF85045
:1009F000FF6EFA501200010AD8B4E8D7030AD8B43F
:100A0000E2D7010AD8B4DFD7070AE0D7DEEC09F055
:100A10009CC0D9FF9DC0DAFFDF6E00019C4B9D2B6F
:100A20009E07D8A09F079E519F11D8B404D0C2EC56
:100A300009F0050E12009A8506D099EC09F0120013
:100A40009DEC09F01200B2C026F0B3C027F020EEF2
:100A5000A6F001D80AD00500FA6EDE50FD6EDE5019
:100A6000FE6EF850FF6EFA501200010AD8B4E8D7B3
:100A7000030AD8B4E2D7010AD8B4DFD7070AE0D70F
:100A8000D0EC08F0F28EF28C78EC05F0E1EC05F099
:100A900038EC04F020EE94F0050EEBCFDBFFE80617
:100AA000FCE2030E486E080E476E770EE82EFED766
:100AB000472EFCD7482EFAD700F00B0E0001606FCE
:100AC000060E616F94C062F095C063F096C064F04A
:100AD00097C065F098C066F099C067F00BEC03F022
:100AE000120E0001606F060E616F0BEC03F0D0D7A1
:100AF000400E3F6E2B0ECCEC07F0030E426E080E3C
:100B0000416E770EE82EFED7412EFCD7422EFAD743
:100B100000F02B0EE5EC07F0416E41BCFAD7010E58
:100B20003F6E0E0ECCEC07F0020E3F6E2B0ECCEC9F
:100B300007F0010E3F6E2D0ECCEC07F0010E3F6E5C
:100B40002E0ECCEC07F0400E3F6E110ECCEC07F0F1
:100B5000050E3F6E2A0ECCEC07F01200660EF66E04
:100B60000F0EF76E000EF86E01EE00F010EE32F090
:100B70000900F5CFEEFFE550E150FAE17C0EF66E8C
:100B8000100EF76E000EF86E00EEBFF010EE24F0BF
:100B90000900F5CFEEFFE550E150FAE100EE9AF0E2
:100BA000250EEE6AE806FDE100EE01F0250EEE6A84
:100BB000E806FDE14A904A92000EF86E000140EF0F
:100BC00005F021EE00F010EE60F0310EDBCFE3FF18
:100BD000E806FCE2000E0001936F000E926F93BFD7
:100BE00006D093511DE1320E925DD8B01200600E16
:100BF0009225D96E000E9321DA6EDF5096EC07F045
:100C0000030E3C6E080E3B6E770EE82EFED73B2E91
:100C1000FCD73C2EFAD700F00001924B932BDFD784
:100C200012004AB240EF06F000019A850AD046EC65
:100C300009F01200CAEC09F0030E12003FEC09F0B3
:100C40001200B2C03AF0B3C03BF020EEA6F001D8DB
:100C50000AD00500FA6EDE50FD6EDE50FE6EF850D2
:100C6000FF6EFA501200010AD8B4E8D7030AD8B4CC
:100C7000DED7010AD8B4DBD7070AD8B4DBD7DED772
:100C800000019A850AD0A9EC09F01200DCEC09F009
:100C9000030E1200A5EC09F01200B2C026F0B3C09A
:100CA00027F020EEA6F001D80AD00500FA6EDE503B
:100CB000FD6EDE50FE6EF850FF6EFA501200010A13
:100CC000D8B4E8D7030AD8B4DED7010AD8B4DBD742
:100CD000070AD8B4DBD7DED7000E406E000E3F6E99
:100CE0003C503D10D8B41CD0010E3E6E04D0D890BC
:100CF0003C363D363E2A3DAEFAD7D8903F36403698
:100D00003C503A5C3D503B58D8A005D03C503A5E30
:100D10003D503B5A3F80D8903D323C323E2EEDD77D
:100D20003FC03AF040C03BF012004AB22DEF07F04E
:100D3000D8EC09F000019AA707D0B0EC08F0D8A0D1
:100D400003D00F0E0001A46F0001A451020DBF0ECD
:100D5000F324D96E000EF420DA6E01D80AD0050013
:100D6000FA6EDE50FD6EDE50FE6EF850FF6EFA50E9
:100D700012000001A46F12004AB251EF07F0000107
:100D80009A97020EA56F06D046EC09F012003FECD0
:100D900009F01200B6C03AF0B7C03BF020EEAAF05E
:100DA00001D80AD00500FA6EDE50FD6EDE50FE6EF0
:100DB000F850FF6EFA501200020AD8B4E5D7010AC3
:100DC000D8B4E2D7E4D79D9A9D98F80E3A6E0F0EEC
:100DD0003B6E73EC09F0260E3A6E100E3B6E78EC0B
:100DE00009F0080EB86E900EAB6E240EAC6E220E9B
:100DF000AF6E000EB06E000E1C6E000E1B6E080E65
:100E0000496E000E1A6E000E196E000E186E9D8A45
:100E100012003D6E010E3E6E00019AB11CD09A8107
:100E2000000E3E6E07D0010E03D0100E01D0020E50
:100E3000A46F0AD03D50000AD8B4F5D7010AD8B43F
:100E4000F4D7030AD8B4F3D7D4EC09F0F4EC08F0E3
:100E5000D8A06CEC08F03E501200DAEC09F000016A
:100E60009AA707D0BBEC08F0D8A003D00F0E000162
:100E7000A46F0001A451020DBF0EF324D96E000E21
:100E8000F420DA6E01D80AD00500FA6EDE50FD6E4D
:100E9000DE50FE6EF850FF6EFA5012000001A46F93
:100EA000120000019A97020EA56F06D0A9EC09F076
:100EB0001200A5EC09F01200B6C026F0B7C027F06A
:100EC00020EEAAF001D80AD00500FA6EDE50FD6EC1
:100ED000DE50FE6EF850FF6EFA501200020AD8B4CF
:100EE000E5D7010AD8B4E2D7E4D743504410D8B4C8
:100EF00018D0010E456E04D0D89043364436452AAA
:100F000044AEFAD74350415C44504258D8A004D074
:100F10004350415E4450425AD89044324332452EA9
:100F2000F1D741C041F042C042F012003A6E495040
:100F3000D8B4FDD79DB803D03AC0ADFF12D09D986C
:100F40001C50010D090EF324D96E000EF420DA6E48
:100F50003AC0DFFF1C2A070E1C6402D0000E1C6E74
:100F600049069D8812000A0D474F542048455245B6
:100F70002E200A0D0000000000000000000000000C
:100F80000000000000000000000000000000000061
:100F90000000000000000000406E40C023F03FC091
:100FA00024F01D0EA0EC03F0230E3A6E000E3B6EF3
:100FB000000E3D6E020E3C6E5FEC08F091EC09F005
:100FC000176E50EC08F0176E1200406E1D0EA0EC6C
:100FD00003F0250E3A6E000E3B6E000E3D6E010EC4
:100FE0003C6E5FEC08F0405023EC09F0166E50ECBC
:100FF00008F0166E25501200080E496012D01B50E2
:10100000010D090EF324D96E000EF420DA6EDF50C4
:10101000AD6E1B2A070E1B6402D0000E1B6E492A00
:1010200012009D981200ABA202D0AB98AB881A5068
:10103000010D010EF324D96E000EF420DA6EAECF4E
:10104000DFFF1A2A070E1A6402D0000E1A6E182A41
:101050001200000E896E000E8A6E000E8B6E926872
:101060009368BF0E946E240E0F013A6F3F0E396FD6
:101070002F0E386F000E616EF18E1200D6113411F2
:101080000811DA079209C411220CA8129A128C12C4
:101090007E127012621254124A11780D1E118C11B8
:1010A000010E3A6E00019AB108D09A939B69D8EC70
:1010B00009F0D6EC09F0A5C03AF03A501200000150
:1010C0009AA512003AC09CF03BC09DF03CC09EF037
:1010D0003DC09FF09A95120008D0000E3A6E000EA7
:1010E0003B6ED9EC08F095EC06F000019AA11200D5
:1010F000F4D7C6BA1200000EC76E280EC66E000ED8
:10110000C56E270EC86E12004AB2FCEF08F000014F
:101110009A879B519B2595EC09F0030E12004AB269
:1011200004EF09F000019A879B519B2595EC09F08B
:10113000110E12004AB20CEF09F000019A87D88014
:101140009B3595EC09F0050E12004AB214EF09F038
:10115000ECEC09F000019A91000EA56F0E0E120042
:10116000C550BF0B4009C56EC538E832E832010BE7
:101170003A6E3A301200C550BF0B4009C56EC538F3
:10118000E832E832010B266E263012004AB25BEFDD
:1011900009F000019A87BE5195EC09F0070E120084
:1011A000C8EC09F029EC08F01CEC09F0E3EC06F0BF
:1011B00012009EB612009EB61200850EE82EFED7D3
:1011C00000F0F9D74AB262EF09F000019A97CEEC2D
:1011D00009F0040E12004AB268EF09F000019A917A
:1011E000000EA56F0E0E12009DA603D03A6A3A2A91
:1011F00001D03A6A3A30120000019A879B519B2530
:10120000B5EC09F0030E120000019A879B519B2553
:10121000B5EC09F0110E120000019A87D8809B35B9
:10122000B5EC09F0050E1200EDEC09F000019A9101
:10123000000EA56F0E0E1200720ED36E040ED26E4B
:10124000400E9B6E12003F6E3FC0BEF0010E09ECD7
:1012500007F012004AB299EF09F0B9EC09F0090E53
:1012600012004AB29DEF09F0B9EC09F00A0E120023
:101270004AB2A1EF09F0BCEC09F0050E12004AB227
:10128000A5EF09F0D0EC09F0000E12004AB2A9EF68
:1012900009F0D2EC09F0010E12004AB2ADEF09F0EC
:1012A000D2EC09F0020E12004AB2B1EF09F0D2EC12
:1012B00009F0010E120000019A87BE51B5EC09F049
:1012C000070E120000019A97E0EC09F0040E1200DC
:1012D00000019A91000EA56F0E0E12003B6E3B505E
:1012E00096EC07F012003AC0E5F03BC0E6F01200C1
:1012F0003AC0E3F03BC0E4F012003AC011F03BC04A
:1013000012F012003AC013F03BC014F012004AB2BF
:10131000E2EF09F0050E12004AB2E4EF09F0010E07
:101320001200020E09EC07F012003A6E3AC0C9FF33
:101330001200BFEC09F0090E1200BFEC09F00A0E12
:101340001200C2EC09F0050E1200E6EC09F0000EE6
:101350001200E8EC09F0010E1200E8EC09F0020EB0
:101360001200E8EC09F0010E1200266E26C0C9FF3B
:101370001200C58AC5881200C59AC5881200C58AA0
:10138000C5881200C59AC5881200EAEC09F012005F
:10139000D09E12009E861200C9501200C58612000F
:1013A000C5841200C5821200C58012009D961200ED
:1013B0009E9612009E9612009E861200C950120040
:1013C000C5861200050E1200010E1200C58412001F
:0C13D000C5821200A1961200120012004B
:020000040020DA
:08000000FFFFFFFFFFFFFFFF00
:020000040030CA
:0E000000FF281F3CFFBF85FF0FC00FE00F4021
:00000001FF
