:0400000081EF00F09C
:100008004B82FACF28F0FBCF29F0E9CF2AF0EACFCC
:100018002BF0E1CF2CF0E2CF2DF0D9CF2EF0DACFB4
:100028002FF0F3CF30F0F4CF31F0F6CF32F0F7CF36
:1000380033F0F8CF34F0F5CF35F04BC036F04CC084
:1000480037F04DC038F04EC039F0F2AC30D0A0B621
:10005800A1A608D001D82BD00500FA6E1350FD6E6A
:10006800145020D09DB69EA608D001D820D00500F7
:10007800FA6E1150FD6E125015D09DB89EA808D08A
:1000880001D815D00500FA6E4850FD6E49500AD0C7
:100098009DBA9EAA0CD001D80AD00500FA6E465027
:1000A800FD6E4750FE6EF850FF6EFA50120039C0D0
:1000B8004EF038C04DF037C04CF036C04BF035C06C
:1000C800F5FF34C0F8FF33C0F7FF32C0F6FF31C088
:1000D800F4FF30C0F3FF2FC0DAFF2EC0D9FF2DC0C8
:1000E800E2FF2CC0E1FF2BC0EAFF2AC0E9FF29C0CC
:0E00F800FBFF28C0FAFF4B92110079EF06F0D3
:05060000000D0A0000DE
:100606003D6E010E3C6E0001B6B312003DC0B7F060
:10061600B691B683B6970E0EC06F010EBF6FF40E7D
:10062600BE6FB685F80EC26F100EC36F000ECE6F8A
:10063600000ECF6FF80EC46F100EC56F000ED06F90
:10064600000ED16FF80EC66F100EC76F000ED26F78
:10065600000ED36FF80EC86F100EC96F000ED46F60
:10066600000ED56FEE0ECA6F100ECB6F000ED66F52
:10067600000ED76F69EC07F0C8EC08F06A0E3A6E08
:10068600110E3B6E72EC08F0320E3A6E0B0E3B6E9C
:100696006DEC08F0000E3C6E12004BB2E4EF03F076
:1006A600A0EC07F0D8B00AD026D044EC08F012002F
:1006B6003DEC08F012002FEC08F01200D4C03AF01E
:1006C600D5C03BF020EEC8F001D80AD00500FA6E7E
:1006D600DE50FD6EDE50FE6EF850FF6EFA501200D0
:1006E600010AD8B4E8D7030AD8B4DFD7010AD8B4C8
:1006F600DFD7070AE0D70001B697B8C0D9FFB9C05F
:10070600DAFFB84BB92BDF5085EC08F00001BA07C9
:10071600D8A0BB07BA51BB11D8A404D0000E3C6EBA
:10072600060E03D0000E3C6E030E3B6E3B501200CD
:100736001D0E03EC03F01D0E3A6E000E3B6E000E0E
:100746003D6E060E3C6E4FEC07F0010E13EC08F002
:10075600156E40EC07F0156E1DC0DBF00001DC6B7A
:10076600DB51DC6FDB6B1E50DB13DC35DC33DB333C
:10077600DC35DC33DB331FC0DDF0DE6BDD51DE6FD5
:10078600DD6B2050DD13DE35DE33DD33DE35DE3363
:10079600DD3321C0DFF0E06BDF51E06FDF6B22500D
:1007A600DF13E035E033DF33E035E033DF3320EECF
:1007B600DBF000EE40F0050EDBCFEBFFE806FCE2D7
:1007C6001200ABEC07F0D8B00AD026D0A1EC08F0A6
:1007D60012009DEC08F0120095EC08F01200D4C04F
:1007E60026F0D5C027F020EEC8F001D80AD00500C3
:1007F600FA6EDE50FD6EDE50FE6EF850FF6EFA5059
:100806001200010AD8B4E8D7030AD8B4DFD7010A20
:10081600D8B4DFD7070AE0D70001B697B8C0D9FF2A
:10082600B9C0DAFFB84BB92BDF50A5EC08F00001D0
:10083600BA07D8A0BB07BA51BB11D8A404D0000E82
:10084600276E060E03D0000E276E030E266E265068
:1008560012004BB2A3EF04F0BCEC08F0B8C0D9FF0D
:10086600B9C0DAFFDF6E0001B84BB92BBA07D8A0C2
:10087600BB07BA51BB11D8B404D0ACEC08F0050ED6
:100886001200B68506D01AEC08F0120021EC08F02A
:100896001200CEC03AF0CFC03BF020EEC2F001D835
:1008A6000AD00500FA6EDE50FD6EDE50FE6EF85080
:1008B600FF6EFA501200010AD8B4E8D7030AD8B47A
:1008C600E2D7010AD8B4DFD7070AE0D7C0EC07F0B1
:1008D600F28EF28CDDEC04F09BEC03F020EEE3F0FC
:1008E600050EEBCFDBFFE806FCE2030E0001E26F2C
:1008F600080EE16F770EE82EFED7E12FFCD7E22F28
:10090600FAD70001E3519CEC06F00001E4519CEC9F
:1009160006F00001E5519CEC06F00001E6519CEC66
:1009260006F00001E7519CEC06F00001E8519CEC52
:1009360006F0010E3C6E060E3D6E16EC07F0CCD7A7
:10094600CEEC08F0B8C0D9FFB9C0DAFFDF6E0001FF
:10095600B84BB92BBA07D8A0BB07BA51BB11D8B44C
:1009660004D0B2EC08F0050E1200B68506D089EC6C
:1009760008F012008DEC08F01200CEC026F0CFC0B1
:1009860027F020EEC2F001D80AD00500FA6EDE503C
:10099600FD6EDE50FE6EF850FF6EFA501200010A30
:1009A600D8B4E8D7030AD8B4E2D7010AD8B4DFD757
:1009B600070AE0D7400E3F6E2B0EB9EC06F0030E89
:1009C600426E080E416E770EE82EFED7412EFCD7FA
:1009D600422EFAD700F02B0ED2EC06F0416E41BC47
:1009E600FAD7010E3F6E0E0EB9EC06F0020E3F6E00
:1009F6002B0EB9EC06F0010E3F6E2D0EB9EC06F08B
:100A0600010E3F6E2E0EB9EC06F0400E3F6E110E33
:100A1600B9EC06F0050E3F6E2A0EB9EC06F0120090
:100A26004BB242EF05F00001B6850AD036EC08F06D
:100A36001200BAEC08F0030E12002FEC08F01200B8
:100A4600CEC03AF0CFC03BF020EEC2F001D80AD0BB
:100A56000500FA6EDE50FD6EDE50FE6EF850FF6E3B
:100A6600FA501200010AD8B4E8D7030AD8B4DED780
:100A7600010AD8B4DBD7070AD8B4DBD7DED7000122
:100A8600B6850AD099EC08F01200CCEC08F0030EFB
:100A9600120095EC08F01200CEC026F0CFC027F069
:100AA60020EEC2F001D80AD00500FA6EDE50FD6EC7
:100AB600DE50FE6EF850FF6EFA501200010AD8B4EE
:100AC600E8D7030AD8B4DED7010AD8B4DBD7070AB9
:100AD600D8B4DBD7DED70A0D474F542048455245D8
:100AE6002E200A0D0000000000000000000000009B
:100AF60000000000000000000000000000000000F0
:100B06000000000000000000B60F140FE80EA0065B
:100B16005808A40F260A88107A106C105E10501020
:100B2600421034102A0F800BFE0E6C0F4BB231EFC1
:100B360006F0C8EC08F00001B6A707D0A0EC07F055
:100B4600D8A003D00F0E0001C06F0001C051020DE6
:100B5600920EF324D96E000EF420DA6E01D80AD074
:100B66000500FA6EDE50FD6EDE50FE6EF850FF6E2A
:100B7600FA5012000001C06F12004BB255EF06F09A
:100B86000001B697020EC16F06D036EC08F01200CF
:100B96002FEC08F01200D2C03AF0D3C03BF020EEA2
:100BA600C6F001D80AD00500FA6EDE50FD6EDE50A2
:100BB600FE6EF850FF6EFA501200020AD8B4E5D75E
:100BC600010AD8B4E2D7E4D79D9A9D98D20E3A6E20
:100BD6000D0E3B6E63EC08F0000E3A6E0E0E3B6E89
:100BE60068EC08F0080EB86E900EAB6E240EAC6E74
:100BF600220EAF6E000EB06E000E1C6E000E1B6E47
:100C0600080E4A6E000E1A6E000E196E000E186E51
:100C16009D8A12003D6E010E3E6E0001B6B11CD0DB
:100C2600B681000E3E6E07D0010E03D0100E01D025
:100C3600020EC06F0AD03D50000AD8B4F5D7010A9B
:100C4600D8B4F4D7030AD8B4F3D7C4EC08F0E4EC6C
:100C560007F0D8A05CEC07F03E501200CAEC08F092
:100C66000001B6A707D0ABEC07F0D8A003D00F0E53
:100C76000001C06F0001C051020D920EF324D96E1F
:100C8600000EF420DA6E01D80AD00500FA6EDE50A6
:100C9600FD6EDE50FE6EF850FF6EFA501200000137
:100CA600C06F12000001B697020EC16F06D099EC14
:100CB60008F0120095EC08F01200D2C026F0D3C05E
:100CC60027F020EEC6F001D80AD00500FA6EDE50F5
:100CD600FD6EDE50FE6EF850FF6EFA501200020AEC
:100CE600D8B4E5D7010AD8B4E2D7E4D7DC0EF66E5D
:100CF6000A0EF76E000EF86E00EE60F010EE56F07B
:100D06000900F5CFEEFFE550E150FAE100EEB6F04E
:100D1600250EEE6AE806FDE100EE01F0250EEE6A0C
:100D2600E806FDE14B904B92000EF86E000169EF6C
:100D360004F03A6E4A50D8B4FDD79DB803D03AC0F5
:100D4600ADFF12D09D981C50010D090EF324D96EEB
:100D5600000EF420DA6E3AC0DFFF1C2A070E1C6470
:100D660002D0000E1C6E4A069D881200406E40C0DE
:100D760023F03FC024F01D0E03EC03F0230E3A6E61
:100D8600000E3B6E000E3D6E020E3C6E4FEC07F001
:100D960081EC08F0176E40EC07F0176E1200406EFB
:100DA6001D0E03EC03F0250E3A6E000E3B6E000E90
:100DB6003D6E010E3C6E4FEC07F0405013EC08F010
:100DC600166E40EC07F0166E25501200080E4A60AB
:100DD60012D01B50010D090EF324D96E000EF4201B
:100DE600DA6EDF50AD6E1B2A070E1B6402D0000EB2
:100DF6001B6E4A2A12009D981200ABA202D0AB9835
:100E0600AB881A50010D010EF324D96E000EF420A2
:100E1600DA6EAECFDFFF1A2A070E1A6402D0000E72
:100E26001A6E182A12003E0E3E6E000E3F6E03D05A
:100E360040505EEC08F03CC0F6FF3DC0F7FF3C4A70
:100E46003D2A0800F5CF40F04050D8B41200F0D744
:100E5600000E896E000E8A6E000E8B6E9268936885
:100E6600BF0E946E240E0F013A6F3F0E396F2F0E90
:100E7600386F000E616EF18E1200010E3A6E00019F
:100E8600B6B108D0B693B769C8EC08F0C6EC08F05E
:100E9600C1C03AF03A5012000001B6A512003AC09D
:100EA600B8F03BC0B9F03CC0BAF03DC0BBF0B69557
:100EB600120008D0000E3A6E000E3B6EC9EC07F029
:100EC60099EC05F00001B6A11200F4D7C6BA1200DB
:100ED600000EC76E280EC66E000EC56E270EC86EB3
:100EE60012004BB2ECEF07F00001B687B751B725F9
:100EF60085EC08F0030E12004BB2F4EF07F0000188
:100F0600B687B751B72585EC08F0110E12004BB223
:100F1600FCEF07F00001B687D880B73585EC08F0FE
:100F2600050E12004BB204EF08F0DCEC08F00001ED
:100F3600B691000EC16F0E0E1200C550BF0B4009D0
:100F4600C56EC538E832E832010B3A6E3A30120007
:100F5600C550BF0B4009C56EC538E832E832010BF3
:100F6600266E263012004BB24BEF08F00001B68712
:100F7600DA5185EC08F0070E1200B8EC08F02BECFD
:100F860007F00CEC08F0E7EC05F012009EB6120034
:100F96009EB61200850EE82EFED700F0F9D74BB2AA
:100FA60052EF08F00001B697BEEC08F0040E1200EE
:100FB6004BB258EF08F00001B691000EC16F0E0E4D
:100FC60012009DA603D03A6A3A2A01D03A6A3A300C
:100FD60012000001B687B751B725A5EC08F0030E3D
:100FE60012000001B687B751B725A5EC08F0110E1F
:100FF60012000001B687D880B735A5EC08F0050EBB
:101006001200DDEC08F00001B691000EC16F0E0E65
:101016001200720ED36E040ED26E400E9B6E12003C
:101026003F6E3FC0DAF0010E0DEC06F012004BB237
:1010360089EF08F0A9EC08F0090E12004BB28DEF0B
:1010460008F0A9EC08F00A0E12004BB291EF08F076
:10105600ACEC08F0050E12004BB295EF08F0C0ECB0
:1010660008F0000E12004BB299EF08F0C2EC08F03F
:10107600010E12004BB29DEF08F0C2EC08F0020E12
:1010860012004BB2A1EF08F0C2EC08F0010E1200FC
:101096000001B687DA51A5EC08F0070E1200000130
:1010A600B697D0EC08F0040E12000001B691000EBF
:1010B600C16F0E0E12003B6E3B509CEC06F0120008
:1010C6003AC048F03BC049F012003AC046F03BC077
:1010D60047F012003AC011F03BC012F012003AC0BD
:1010E60013F03BC014F012004BB2D2EF08F0050E1D
:1010F60012004BB2D4EF08F0010E1200020E0DECF6
:1011060006F012003A6E3AC0C9FF1200AFEC08F0C2
:10111600090E1200AFEC08F00A0E1200B2EC08F04D
:10112600050E1200D6EC08F0000E1200D8EC08F0FE
:10113600010E1200D8EC08F0020E1200D8EC08F0EE
:10114600010E1200266E26C0C9FF1200C58AC58888
:101156001200C59AC5881200C58AC5881200C59AAC
:10116600C5881200DAEC08F01200D09E12009E86A6
:101176001200C9501200C5861200C5841200C5822D
:101186001200C58012009D9612009E9612009E9631
:1011960012009E861200C9501200C5861200050E66
:1011A6001200010E1200C5841200C5821200A1961B
:0611B600120012001200FD
:020000040020DA
:08000000FFFFFFFFFFFFFFFF00
:020000040030CA
:0E000000FF281F3CFFBF85FF0FC00FE00F4021
:00000001FF
