:0400000083EF00F09A
:100008004A82FACF28F0FBCF29F0E9CF2AF0EACFCD
:100018002BF0E1CF2CF0E2CF2DF0D9CF2EF0DACFB4
:100028002FF0F3CF30F0F4CF31F0F6CF32F0F7CF36
:1000380033F0F8CF34F0F5CF35F04AC036F04BC086
:1000480037F04CC038F04DC039F0F2AC32D0A0B621
:10005800A1A608D001D82DD00500FA6E1350FD6E68
:10006800145022D09DB69EA608D001D822D00500F3
:10007800FA6E1150FD6E125017D09DB89EA809D087
:1000880001D817D005000001FA6EE551FD6EE65162
:100098000BD09DBA9EAA0DD001D80BD00500000147
:1000A800FA6EE351FD6EE451FE6EF850FF6EFA50A1
:1000B800120039C04DF038C04CF037C04BF036C094
:1000C8004AF035C0F5FF34C0F8FF33C0F7FF32C03F
:1000D800F6FF31C0F4FF30C0F3FF2FC0DAFF2EC0A7
:1000E800D9FF2DC0E2FF2CC0E1FF2BC0EAFF2AC0D8
:1000F800E9FF29C0FBFF28C0FAFF4A92110082EFEE
:0201080005F000
:100600000001000A006400E80310270A0D56616C1F
:10061000756573206172652C20783A2025642C2042
:10062000793A2025642C207A3A2025640000620E55
:100630000001686F000E696F81D0250E6E19D8B465
:1006400004D06E5173EC09F079D0000E00016A6F8E
:1006500060C0F6FF61C0F7FF604B612B0800F5CF6B
:100660006EF06E51000AD8B41200640AD8B403D0F8
:100670000D0AD8A463D068C0D9FF69C0DAFFDECF05
:100680006CF0DDCF6DF0020E6827000E69236DAFB0
:1006900006D0030E6A136C6D6D1FD8B06D2B010E62
:1006A0006E6F050E6E19D8B412D06E51020D010E88
:1006B000F324F66E060EF420F76E0900F5506C5D1B
:1006C0000900F5506D59D8A002D06E2BEAD76AC048
:1006D00046F0030E4616D8B403D02D0E73EC09F085
:1006E0006EC06BF026D000016B51020D010EF32499
:1006F000F66E060EF420F76E0900F5CF3CF00A0006
:10070000F5CF3DF06CC03AF06DC03BF071EC06F0F7
:100710003AC041F03BC042F0000E446E0A0E436EF8
:100720007AEC07F04150300F00016E6F6E5173ECA0
:1007300009F000016B076B29D8A4D5D760C0F6FF7C
:1007400061C0F7FF0001604B612B0800F5CF6EF030
:100750006E51D8B4120071D73D6E010E3C6E00018F
:100760009AB312003DC09BF09A919A839A970E0E0D
:10077000A46F010EA36FF40EA26F9A85220EA66FCE
:10078000130EA76F000EB26F000EB36F220EA86F8C
:10079000130EA96F000EB46F000EB56F220EAA6F74
:1007A000130EAB6F000EB66F000EB76F220EAC6F5C
:1007B000130EAD6F000EB86F000EB96F180EAE6F4E
:1007C000130EAF6F000EBA6F000EBB6F7EEC08F019
:1007D000DDEC09F0940E3A6E130E3B6E87EC09F0D7
:1007E000340E3A6E0D0E3B6E82EC09F0000E3C6E3C
:1007F00012004AB28DEF04F0B5EC08F0D8B00AD080
:1008000026D059EC09F0120052EC09F0120044EC29
:1008100009F01200B8C03AF0B9C03BF020EEACF0DD
:1008200001D80AD00500FA6EDE50FD6EDE50FE6E75
:10083000F850FF6EFA501200010AD8B4E8D7030A44
:10084000D8B4DFD7010AD8B4DFD7070AE0D7000150
:100850009A979CC0D9FF9DC0DAFF9C4B9D2BDF501F
:100860009AEC09F000019E07D8A09F079E519F11A6
:10087000D8A404D0000E3C6E060E03D0000E3C6ED1
:10088000030E3B6E3B5012001D0EACEC03F01D0E30
:100890003A6E000E3B6E000E3D6E060E3C6E64EC32
:1008A00008F0010E28EC09F0156E55EC08F0156EF5
:1008B0001DC060F00001616B6051616F606B1E5084
:1008C00060136135613360336135613360331FC05C
:1008D00062F0636B6251636F626B20506213633529
:1008E0006333623363356333623321C064F0656B15
:1008F0006451656F646B22506413653565336433EE
:1009000065356533643320EE60F000EE40F0050E8F
:10091000DBCFEBFFE806FCE21200C0EC08F0D8B039
:100920000AD026D0B6EC09F01200B2EC09F01200A1
:10093000AAEC09F01200B8C026F0B9C027F020EEEA
:10094000ACF001D80AD00500FA6EDE50FD6EDE5024
:10095000FE6EF850FF6EFA501200010AD8B4E8D7C4
:10096000030AD8B4DFD7010AD8B4DFD7070AE0D723
:1009700000019A979CC0D9FF9DC0DAFF9C4B9D2B2C
:10098000DF50BAEC09F000019E07D8A09F079E51E6
:100990009F11D8A404D0000E276E060E03D0000EBF
:1009A000276E030E266E265012004AB212EF05F093
:1009B000D1EC09F09CC0D9FF9DC0DAFFDF6E0001C9
:1009C0009C4B9D2B9E07D8A09F079E519F11D8B48A
:1009D00004D0C1EC09F0050E12009A8506D02FEC68
:1009E00009F0120036EC09F01200B2C03AF0B3C0C0
:1009F0003BF020EEA6F001D80AD00500FA6EDE50DA
:100A0000FD6EDE50FE6EF850FF6EFA501200010AC5
:100A1000D8B4E8D7030AD8B4E2D7010AD8B4DFD7EC
:100A2000070AE0D7E3EC09F09CC0D9FF9DC0DAFFCC
:100A3000DF6E00019C4B9D2B9E07D8A09F079E5107
:100A40009F11D8B404D0C7EC09F0050E12009A85A6
:100A500006D09EEC09F01200A2EC09F01200B2C020
:100A600026F0B3C027F020EEA6F001D80AD005008A
:100A7000FA6EDE50FD6EDE50FE6EF850FF6EFA50DC
:100A80001200010AD8B4E8D7030AD8B4E2D7010AA1
:100A9000D8B4DFD7070AE0D7400E3F6E2B0ED1EC5B
:100AA00007F0030E426E080E416E770EE82EFED759
:100AB000412EFCD7422EFAD700F02B0EEAEC07F0BD
:100AC000416E41BCFAD7010E3F6E0E0ED1EC07F01D
:100AD000020E3F6E2B0ED1EC07F0010E3F6E2D0E75
:100AE000D1EC07F0010E3F6E2E0ED1EC07F0400E58
:100AF0003F6E110ED1EC07F0050E3F6E2A0ED1ECC1
:100B000007F01200700EF66E0F0EF76E000EF86E04
:100B100001EE00F010EE32F00900F5CFEEFFE550E7
:100B2000E150FAE1860EF66E100EF76E000EF86ECA
:100B300000EEBFF010EE24F00900F5CFEEFFE55017
:100B4000E150FAE100EE9AF0250EEE6AE806FDE1CA
:100B500000EE01F0250EEE6AE806FDE14A904A92A9
:100B6000000EF86E0001B5EF05F0D5EC08F0F28E3E
:100B7000F28C4CEC05F0E6EC05F044EC04F020EED1
:100B800094F0050EEBCFDBFFE806FCE2030E486EA7
:100B9000080E476E770EE82EFED7472EFCD7482E5C
:100BA000FAD700F00B0E0001606F060E616F94C063
:100BB00062F095C063F096C064F097C065F098C08D
:100BC00066F099C067F017EC03F0D7D721EE00F07C
:100BD00010EE60F0310EDBCFE3FFE806FCE2000E22
:100BE0000001936F000E926F93BF06D093511DE1E9
:100BF000320E925DD8B01200600E9225D96E000EB2
:100C00009321DA6EDF509BEC07F0030E3C6E080E6A
:100C10003B6E770EE82EFED73B2EFCD73C2EFAD744
:100C200000F00001924B932BDFD712004AB245EF40
:100C300006F000019A850AD04BEC09F01200CFECC7
:100C400009F0030E120044EC09F01200B2C03AF0B1
:100C5000B3C03BF020EEA6F001D80AD00500FA6E32
:100C6000DE50FD6EDE50FE6EF850FF6EFA50120040
:100C7000010AD8B4E8D7030AD8B4DED7010AD8B439
:100C8000DBD7070AD8B4DBD7DED700019A850AD0B4
:100C9000AEEC09F01200E1EC09F0030E1200AAEC30
:100CA00009F01200B2C026F0B3C027F020EEA6F083
:100CB00001D80AD00500FA6EDE50FD6EDE50FE6EE1
:100CC000F850FF6EFA501200010AD8B4E8D7030AB0
:100CD000D8B4DED7010AD8B4DBD7070AD8B4DBD73B
:100CE000DED7000E406E000E3F6E3C503D10D8B473
:100CF0001CD0010E3E6E04D0D8903C363D363E2AC4
:100D00003DAEFAD7D8903F3640363C503A5C3D5025
:100D10003B58D8A005D03C503A5E3D503B5A3F80EE
:100D2000D8903D323C323E2EEDD73FC03AF040C025
:100D30003BF012004AB232EF07F0DDEC09F000019F
:100D40009AA707D0B5EC08F0D8A003D00F0E000189
:100D5000A46F0001A451020DBF0EF324D96E000E42
:100D6000F420DA6E01D80AD00500FA6EDE50FD6E6E
:100D7000DE50FE6EF850FF6EFA5012000001A46FB4
:100D800012004AB256EF07F000019A97020EA56FC3
:100D900006D04BEC09F0120044EC09F01200B6C08A
:100DA0003AF0B7C03BF020EEAAF001D80AD0050017
:100DB000FA6EDE50FD6EDE50FE6EF850FF6EFA5099
:100DC0001200020AD8B4E5D7010AD8B4E2D7E4D7B2
:100DD0009D9A9D98020E3A6E100E3B6E78EC09F0CB
:100DE000300E3A6E100E3B6E7DEC09F0080EB86EB8
:100DF000900EAB6E240EAC6E220EAF6E000EB06E77
:100E0000000E1C6E000E1B6E080E496E000E1A6E50
:100E1000000E196E000E186E9D8A12003D6E010EB6
:100E20003E6E00019AB11CD09A81000E3E6E07D032
:100E3000010E03D0100E01D0020EA46F0AD03D5057
:100E4000000AD8B4F5D7010AD8B4F4D7030AD8B445
:100E5000F3D7D9EC09F0F9EC08F0D8A071EC08F060
:100E60003E501200DFEC09F000019AA707D0C0EC59
:100E700008F0D8A003D00F0E0001A46F0001A45108
:100E8000020DBF0EF324D96E000EF420DA6E01D8E5
:100E90000AD00500FA6EDE50FD6EDE50FE6EF85090
:100EA000FF6EFA5012000001A46F120000019A9721
:100EB000020EA56F06D0AEEC09F01200AAEC09F004
:100EC0001200B6C026F0B7C027F020EEAAF001D875
:100ED0000AD00500FA6EDE50FD6EDE50FE6EF85050
:100EE000FF6EFA501200020AD8B4E5D7010AD8B44E
:100EF000E2D7E4D743504410D8B418D0010E456E61
:100F000004D0D89043364436452A44AEFAD74350ED
:100F1000415C44504258D8A004D04350415E4450F4
:100F2000425AD89044324332452EF1D741C041F065
:100F300042C042F012003A6E4950D8B4FDD79DB875
:100F400003D03AC0ADFF12D09D981C50010D090E80
:100F5000F324D96E000EF420DA6E3AC0DFFF1C2AAB
:100F6000070E1C6402D0000E1C6E49069D881200FC
:100F70000A0D474F5420484552452E200A0D0000C7
:100F80000000000000000000000000000000000061
:100F90000000000000000000000000000000000051
:100FA0000000406E40C023F03FC024F01D0EACECAA
:100FB00003F0230E3A6E000E3B6E000E3D6E020EE5
:100FC0003C6E64EC08F096EC09F0176E55EC08F0F6
:100FD000176E1200406E1D0EACEC03F0250E3A6E3B
:100FE000000E3B6E000E3D6E010E3C6E64EC08F090
:100FF000405028EC09F0166E55EC08F0166E25509E
:101000001200080E496012D01B50010D090EF32486
:10101000D96E000EF420DA6EDF50AD6E1B2A070E7B
:101020001B6402D0000E1B6E492A12009D9812000C
:10103000ABA202D0AB98AB881A50010D010EF3247D
:10104000D96E000EF420DA6EAECFDFFF1A2A070E3B
:101050001A6402D0000E1A6E182A1200000E896E51
:10106000000E8A6E000E8B6E92689368BF0E946EAF
:10107000240E0F013A6F3F0E396F2F0E386F000E9E
:10108000616EF18E1200E0113E111211F207AA09F1
:10109000CE112C0CB212A412961288127A126C1273
:1010A0005E125411820D28119611010E3A6E000144
:1010B0009AB108D09A939B69DDEC09F0DBEC09F05A
:1010C000A5C03AF03A50120000019AA512003AC0A9
:1010D0009CF03BC09DF03CC09EF03DC09FF09A95B7
:1010E000120008D0000E3A6E000E3B6EDEEC08F0E7
:1010F0009AEC06F000019AA11200F4D7C6BA1200C9
:10110000000EC76E280EC66E000EC56E270EC86E86
:1011100012004AB201EF09F000019A879B519B250A
:101120009AEC09F0030E12004AB209EF09F000012F
:101130009A879B519B259AEC09F0110E12004AB236
:1011400011EF09F000019A87D8809B359AEC09F0DD
:10115000050E12004AB219EF09F0F1EC09F0000196
:101160009A91000EA56F0E0E1200C550BF0B4009DC
:10117000C56EC538E832E832010B3A6E3A301200DB
:10118000C550BF0B4009C56EC538E832E832010BC7
:10119000266E263012004AB260EF09F000019A87ED
:1011A000BE519AEC09F0070E1200CDEC09F02EECBE
:1011B00008F021EC09F0E8EC06F012009EB61200EF
:1011C0009EB61200850EE82EFED700F0F9D74AB27F
:1011D00067EF09F000019A97D3EC09F0040E1200B2
:1011E0004AB26DEF09F000019A91000EA56F0E0E44
:1011F00012009DA603D03A6A3A2A01D03A6A3A30E0
:10120000120000019A879B519B25BAEC09F0030E4E
:10121000120000019A879B519B25BAEC09F0110E30
:10122000120000019A87D8809B35BAEC09F0050EB0
:101230001200F2EC09F000019A91000EA56F0E0E5B
:101240001200720ED36E040ED26E400E9B6E120010
:101250003F6E3FC0BEF0010E0EEC07F012004AB226
:101260009EEF09F0BEEC09F0090E12004AB2A2EF9F
:1012700009F0BEEC09F00A0E12004AB2A6EF09F01E
:10128000C1EC09F0050E12004AB2AAEF09F0D5EC44
:1012900009F0000E12004AB2AEEF09F0D7EC09F0E7
:1012A000010E12004AB2B2EF09F0D7EC09F0020EBB
:1012B00012004AB2B6EF09F0D7EC09F0010E1200A5
:1012C00000019A87BE51BAEC09F0070E1200000126
:1012D0009A97E5EC09F0040E120000019A91000EB5
:1012E000A56F0E0E12003B6E3B509BEC07F01200F8
:1012F0003AC0E5F03BC0E6F012003AC0E3F03BC074
:10130000E4F012003AC011F03BC012F012003AC0F3
:1013100013F03BC014F012004AB2E7EF09F0050EDB
:1013200012004AB2E9EF09F0010E1200020E0EECB3
:1013300007F012003A6E3AC0C9FF1200C4EC09F07F
:10134000090E1200C4EC09F00A0E1200C7EC09F0F5
:10135000050E1200EBEC09F0000E1200EDEC09F0A6
:10136000010E1200EDEC09F0020E1200EDEC09F096
:10137000010E1200266E26C0C9FF1200C58AC5885C
:101380001200C59AC5881200C58AC5881200C59A80
:10139000C5881200EFEC09F01200D09E12009E8664
:1013A0001200C9501200C5861200C5841200C58201
:1013B0001200C58012009D9612009E9612009E9605
:1013C00012009E861200C9501200C5861200050E3A
:1013D0001200010E1200C5841200C5821200A196EF
:0613E000120012001200D1
:020000040020DA
:08000000FFFFFFFFFFFFFFFF00
:020000040030CA
:0E000000FF281F3CFFBF85FF0FC00FE00F4021
:00000001FF
