:0400000081EF00F09C
:100008004B82FACF28F0FBCF29F0E9CF2AF0EACFCC
:100018002BF0E1CF2CF0E2CF2DF0D9CF2EF0DACFB4
:100028002FF0F3CF30F0F4CF31F0F6CF32F0F7CF36
:1000380033F0F8CF34F0F5CF35F04BC036F04CC084
:1000480037F04DC038F04EC039F0F2AC30D0A0B621
:10005800A1A608D001D82BD00500FA6E1350FD6E6A
:10006800145020D09DB69EA608D001D820D00500F7
:10007800FA6E1150FD6E125015D09DB89EA808D08A
:1000880001D815D00500FA6E4850FD6E49500AD0C7
:100098009DBA9EAA0CD001D80AD00500FA6E465027
:1000A800FD6E4750FE6EF850FF6EFA50120039C0D0
:1000B8004EF038C04DF037C04CF036C04BF035C06C
:1000C800F5FF34C0F8FF33C0F7FF32C0F6FF31C088
:1000D800F4FF30C0F3FF2FC0DAFF2EC0D9FF2DC0C8
:1000E800E2FF2CC0E1FF2BC0EAFF2AC0E9FF29C0CC
:0E00F800FBFF28C0FAFF4B92110014EF05F039
:10060000000A00003D6E010E3C6E00019CB312001A
:100610003DC09DF09C919C839C970E0EA66F010E91
:10062000A56FF40EA46F9C857A0EA86F110EA96FAA
:10063000000EB46F000EB56F7A0EAA6F110EAB6F7D
:10064000000EB66F000EB76F7A0EAC6F110EAD6F65
:10065000000EB86F000EB96F7A0EAE6F110EAF6F4D
:10066000000EBA6F000EBB6F700EB06F110EB16F3F
:10067000000EBC6F000EBD6FAAEC07F009EC09F08C
:10068000EC0E3A6E110E3B6EB3EC08F0A40E3A6E0F
:100690000B0E3B6EAEEC08F0000E3C6E12004BB23F
:1006A000E3EF03F0E1EC07F0D8B00AD026D085ECF8
:1006B00008F012007EEC08F0120070EC08F0120056
:1006C000BAC03AF0BBC03BF020EEAEF001D80AD081
:1006D0000500FA6EDE50FD6EDE50FE6EF850FF6EC5
:1006E000FA501200010AD8B4E8D7030AD8B4DFD709
:1006F000010AD8B4DFD7070AE0D700019C979EC053
:10070000D9FF9FC0DAFF9E4B9F2BDF50C6EC08F04D
:100710000001A007D8A0A107A051A111D8A404D01E
:10072000000E3C6E060E03D0000E3C6E030E3B6EB8
:100730003B5012001D0E02EC03F01D0E3A6E000E2F
:100740003B6E000E3D6E060E3C6E90EC07F0010E07
:1007500054EC08F0156E81EC07F0156E1DC060F0CA
:100760000001616B6051616F606B1E5060136135F9
:10077000613360336135613360331FC062F0636B96
:100780006251636F626B205062136335633362336F
:1007900063356333623321C064F0656B6451656F08
:1007A000646B225064136535653364336535653396
:1007B000643320EE60F000EE40F0050EDBCFEBFF7F
:1007C000E806FCE21200ECEC07F0D8B00AD026D024
:1007D000E2EC08F01200DEEC08F01200D6EC08F0B3
:1007E0001200BAC026F0BBC027F020EEAEF001D850
:1007F0000AD00500FA6EDE50FD6EDE50FE6EF85037
:10080000FF6EFA501200010AD8B4E8D7030AD8B430
:10081000DFD7010AD8B4DFD7070AE0D700019C97D9
:100820009EC0D9FF9FC0DAFF9E4B9F2BDF50E6ECA6
:1008300008F00001A007D8A0A107A051A111D8A4D9
:1008400004D0000E276E060E03D0000E276E030E96
:10085000266E265012004BB2A4EF04F0FDEC08F017
:100860009EC0D9FF9FC0DAFFDF6E00019E4B9F2B19
:10087000A007D8A0A107A051A111D8B404D0EDECD5
:1008800008F0050E12009C8506D05BEC08F0120003
:1008900062EC08F01200B4C03AF0B5C03BF020EEB4
:1008A000A8F001D80AD00500FA6EDE50FD6EDE50C9
:1008B000FE6EF850FF6EFA501200010AD8B4E8D765
:1008C000030AD8B4E2D7010AD8B4DFD7070AE0D7C1
:1008D00001EC08F0F28EF28CDEEC04F047EC05F04F
:1008E0009AEC03F020EE96F0050EEBCFDBFFE80666
:1008F000FCE2030E0001956F080E946F770EE82E50
:10090000FED7942FFCD7952FFAD700019751B2EC60
:1009100006F000019651B2EC06F000019951B2ECDC
:1009200006F000019851B2EC06F000019951B2ECCA
:1009300006F000019851B2EC06F0010E3C6E060E76
:100940003D6E45EC07F0CCD70FEC09F09EC0D9FF07
:100950009FC0DAFFDF6E00019E4B9F2BA007D8A03F
:10096000A107A051A111D8B404D0F3EC08F0050EF2
:1009700012009C8506D0CAEC08F01200CEEC08F0FC
:100980001200B4C026F0B5C027F020EEA8F001D8C0
:100990000AD00500FA6EDE50FD6EDE50FE6EF85095
:1009A000FF6EFA501200010AD8B4E8D7030AD8B48F
:1009B000E2D7010AD8B4DFD7070AE0D7400E3F6E6E
:1009C0002B0EE8EC06F0030E426E080E416E770E19
:1009D000E82EFED7412EFCD7422EFAD700F02B0E80
:1009E00001EC07F0416E41BCFAD7010E3F6E0E0ECE
:1009F000E8EC06F0020E3F6E2B0EE8EC06F0010E5E
:100A00003F6E2D0EE8EC06F0010E3F6E2E0EE8EC68
:100A100006F0400E3F6E110EE8EC06F0050E3F6E3C
:100A20002A0EE8EC06F012009E0EF66E0D0EF76E22
:100A3000000EF86E01EE00F010EE32F00900F5CF76
:100A4000EEFFE550E150FAE1DE0EF66E0E0EF76EA7
:100A5000000EF86E00EEC1F010EE24F00900F5CFA4
:100A6000EEFFE550E150FAE100EE9CF0250EEE6A53
:100A7000E806FDE100EE01F0250EEE6AE806FDE174
:100A80004B904B92000EF86E000168EF04F021EEDF
:100A900000F010EE60F0310EDBCFE3FFE806FCE281
:100AA000000E0001936F000E926F93BF06D093511A
:100AB0001DE1320E925DD8B01200600E9225D96E03
:100AC000000E9321DA6EDF50B2EC06F0030E3C6E9E
:100AD000080E3B6E770EE82EFED73B2EFCD73C2E41
:100AE000FAD700F00001924B932BDFD712004BB2E4
:100AF000A6EF05F000019C850AD077EC08F0120003
:100B0000FBEC08F0030E120070EC08F01200B4C009
:100B10003AF0B5C03BF020EEA8F001D80AD00500AD
:100B2000FA6EDE50FD6EDE50FE6EF850FF6EFA502B
:100B30001200010AD8B4E8D7030AD8B4DED7010AF4
:100B4000D8B4DBD7070AD8B4DBD7DED700019C8541
:100B50000AD0DAEC08F012000DEC09F0030E1200D6
:100B6000D6EC08F01200B4C026F0B5C027F020EE95
:100B7000A8F001D80AD00500FA6EDE50FD6EDE50F6
:100B8000FE6EF850FF6EFA501200010AD8B4E8D792
:100B9000030AD8B4DED7010AD8B4DBD7070AD8B421
:100BA000DBD7DED74BB26AEF06F009EC09F00001A3
:100BB0009CA707D0E1EC07F0D8A003D00F0E0001EE
:100BC000A66F0001A651020DC10EF324D96E000ECE
:100BD000F420DA6E01D80AD00500FA6EDE50FD6E00
:100BE000DE50FE6EF850FF6EFA5012000001A66F44
:100BF00012004BB28EEF06F000019C97020EA76F19
:100C000006D077EC08F0120070EC08F01200B8C0C3
:100C10003AF0B9C03BF020EEACF001D80AD00500A4
:100C2000FA6EDE50FD6EDE50FE6EF850FF6EFA502A
:100C30001200020AD8B4E5D7010AD8B4E2D7E4D743
:100C40009D9A9D98300E3A6E0E0E3B6EA4EC08F005
:100C50005E0E3A6E0E0E3B6EA9EC08F0080EB86EF2
:100C6000900EAB6E240EAC6E220EAF6E000EB06E08
:100C7000000E1C6E000E1B6E080E4A6E000E1A6EE1
:100C8000000E196E000E186E9D8A12003D6E010E48
:100C90003E6E00019CB11CD09C81000E3E6E07D0C0
:100CA000010E03D0100E01D0020EA66F0AD03D50E7
:100CB000000AD8B4F5D7010AD8B4F4D7030AD8B4D7
:100CC000F3D705EC09F025EC08F0D8A09DEC07F06F
:100CD0003E5012000BEC09F000019CA707D0ECEC91
:100CE00007F0D8A003D00F0E0001A66F0001A65197
:100CF000020DC10EF324D96E000EF420DA6E01D875
:100D00000AD00500FA6EDE50FD6EDE50FE6EF85021
:100D1000FF6EFA5012000001A66F120000019C97AE
:100D2000020EA76F06D0DAEC08F01200D6EC08F03D
:100D30001200B8C026F0B9C027F020EEACF001D800
:100D40000AD00500FA6EDE50FD6EDE50FE6EF850E1
:100D5000FF6EFA501200020AD8B4E5D7010AD8B4DF
:100D6000E2D7E4D73A6E4A50D8B4FDD79DB803D045
:100D70003AC0ADFF12D09D981C50010D090EF3240E
:100D8000D96E000EF420DA6E3AC0DFFF1C2A070E7F
:100D90001C6402D0000E1C6E4A069D8812000A0DCB
:100DA000474F5420484552452E200A0D00000000B0
:100DB0000000000000000000000000000000000033
:100DC0000000000000000000000000000000000023
:100DD000406E40C023F03FC024F01D0E02EC03F033
:100DE000230E3A6E000E3B6E000E3D6E020E3C6E00
:100DF00090EC07F0C2EC08F0176E81EC07F0176E6C
:100E00001200406E1D0E02EC03F0250E3A6E000E2D
:100E10003B6E000E3D6E010E3C6E90EC07F04050B4
:100E200054EC08F0166E81EC07F0166E2550120097
:100E3000080E4A6012D01B50010D090EF324D96E22
:100E4000000EF420DA6EDF50AD6E1B2A070E1B6415
:100E500002D0000E1B6E4A2A12009D981200ABA20F
:100E600002D0AB98AB881A50010D010EF324D96E55
:100E7000000EF420DA6EAECFDFFF1A2A070E1A64D6
:100E800002D0000E1A6E182A12003E0E3E6E000EA0
:100E90003F6E03D040509FEC08F03CC0F6FF3DC0D1
:100EA000F7FF3C4A3D2A0800F5CF40F04050D8B447
:100EB0001200F0D7000E896E000E8A6E000E8B6E47
:100EC00092689368BF0E946E240E0F013A6F3F0E26
:100ED000396F2F0E386F000E616EF18E12003810D0
:100EE000960F6A0F9E0656082610EE0A0A11FC108D
:100EF000EE10E010D210C410B610AC0FF20B800F41
:100F0000EE0F010E3A6E00019CB108D09C939D69D2
:100F100009EC09F007EC09F0A7C03AF03A501200CA
:100F200000019CA512003AC09EF03BC09FF03CC05F
:100F3000A0F03DC0A1F09C95120008D0000E3A6EC2
:100F4000000E3B6E0AEC08F0D2EC05F000019CA10B
:100F50001200F4D7C6BA1200000EC76E280EC66E75
:100F6000000EC56E270EC86E12004BB22DEF08F0B2
:100F700000019C879D519D25C6EC08F0030E1200D0
:100F80004BB235EF08F000019C879D519D25C6ECC2
:100F900008F0110E12004BB23DEF08F000019C87E3
:100FA000D8809D35C6EC08F0050E12004BB245EF17
:100FB00008F01DEC09F000019C91000EA76F0E0EC9
:100FC0001200C550BF0B4009C56EC538E832E83283
:100FD000010B3A6E3A301200C550BF0B4009C56E86
:100FE000C538E832E832010B266E263012004BB2CB
:100FF0008CEF08F000019C87C051C6EC08F0070E8A
:101000001200F9EC08F05AEC07F04DEC08F020EC77
:1010100006F012009EB612009EB61200850EE82E53
:10102000FED700F0F9D74BB293EF08F000019C9780
:10103000FFEC08F0040E12004BB299EF08F000012B
:101040009C91000EA76F0E0E12009DA603D03A6A67
:101050003A2A01D03A6A3A30120000019C879D5129
:101060009D25E6EC08F0030E120000019C879D51BF
:101070009D25E6EC08F0110E120000019C87D88037
:101080009D35E6EC08F0050E12001EEC09F000019B
:101090009C91000EA76F0E0E1200720ED36E040EFE
:1010A000D26E400E9B6E12003F6E3FC0C0F0010E2C
:1010B00046EC06F012004BB2CAEF08F0EAEC08F07A
:1010C000090E12004BB2CEEF08F0EAEC08F00A0E5F
:1010D00012004BB2D2EF08F0EDEC08F0050E120052
:1010E0004BB2D6EF08F001EC09F0000E12004BB243
:1010F000DAEF08F003EC09F0010E12004BB2DEEF5C
:1011000008F003EC09F0020E12004BB2E2EF08F017
:1011100003EC09F0010E120000019C87C051E6ECBF
:1011200008F0070E120000019C9711EC09F0040E64
:10113000120000019C91000EA76F0E0E12003B6E74
:101140003B50B2EC06F012003AC048F03BC049F008
:1011500012003AC046F03BC047F012003AC011F00E
:101160003BC012F012003AC013F03BC014F0120062
:101170004BB213EF09F0050E12004BB215EF09F058
:10118000010E1200020E46EC06F012003A6E3AC052
:10119000C9FF1200F0EC08F0090E1200F0EC08F0A4
:1011A0000A0E1200F3EC08F0050E120017EC09F01D
:1011B000000E120019EC09F0010E120019EC09F0F2
:1011C000020E120019EC09F0010E1200266E26C064
:1011D000C9FF1200C58AC5881200C59AC5881200C9
:1011E000C58AC5881200C59AC58812001BEC09F093
:1011F0001200D09E12009E861200C9501200C586B1
:101200001200C5841200C5821200C58012009D968E
:1012100012009E9612009E9612009E861200C950E1
:101220001200C5861200050E1200010E1200C584C0
:0E1230001200C5821200A196120012001200D8
:020000040020DA
:08000000FFFFFFFFFFFFFFFF00
:020000040030CA
:0E000000FF281F3CFFBF85FF0FC00FE00F4021
:00000001FF
