:0400000081EF00F09C
:100008004B82FACF28F0FBCF29F0E9CF2AF0EACFCC
:100018002BF0E1CF2CF0E2CF2DF0D9CF2EF0DACFB4
:100028002FF0F3CF30F0F4CF31F0F6CF32F0F7CF36
:1000380033F0F8CF34F0F5CF35F04BC036F04CC084
:1000480037F04DC038F04EC039F0F2AC30D0A0B621
:10005800A1A608D001D82BD00500FA6E1350FD6E6A
:10006800145020D09DB69EA608D001D820D00500F7
:10007800FA6E1150FD6E125015D09DB89EA808D08A
:1000880001D815D00500FA6E4850FD6E49500AD0C7
:100098009DBA9EAA0CD001D80AD00500FA6E465027
:1000A800FD6E4750FE6EF850FF6EFA50120039C0D0
:1000B8004EF038C04DF037C04CF036C04BF035C06C
:1000C800F5FF34C0F8FF33C0F7FF32C0F6FF31C088
:1000D800F4FF30C0F3FF2FC0DAFF2EC0D9FF2DC0C8
:1000E800E2FF2CC0E1FF2BC0EAFF2AC0E9FF29C0CC
:0E00F800FBFF28C0FAFF4B92110015EF05F038
:05060000000D0A0000DE
:100606003D6E010E3C6E00019CB312003DC09DF094
:100616009C919C839C970E0EA66F010EA56FF40EFF
:10062600A46F9C857C0EA86F110EA96F000EB46F87
:10063600000EB56F7C0EAA6F110EAB6F000EB66F73
:10064600000EB76F7C0EAC6F110EAD6F000EB86F5B
:10065600000EB96F7C0EAE6F110EAF6F000EBA6F43
:10066600000EBB6F720EB06F110EB16F000EBC6F35
:10067600000EBD6FABEC07F00AEC09F0EE0E3A6E19
:10068600110E3B6EB4EC08F0A60E3A6E0B0E3B6EE6
:10069600AFEC08F0000E3C6E12004BB2E4EF03F034
:1006A600E2EC07F0D8B00AD026D086EC08F01200AB
:1006B6007FEC08F0120071EC08F01200BAC03AF0B4
:1006C600BBC03BF020EEAEF001D80AD00500FA6EB2
:1006D600DE50FD6EDE50FE6EF850FF6EFA501200D0
:1006E600010AD8B4E8D7030AD8B4DFD7010AD8B4C8
:1006F600DFD7070AE0D700019C979EC0D9FF9FC0AD
:10070600DAFF9E4B9F2BDF50C7EC08F00001A007D5
:10071600D8A0A107A051A111D8A404D0000E3C6E08
:10072600060E03D0000E3C6E030E3B6E3B501200CD
:100736001D0E03EC03F01D0E3A6E000E3B6E000E0E
:100746003D6E060E3C6E91EC07F0010E55EC08F07E
:10075600156E82EC07F0156E1DC060F00001616B2E
:100766006051616F606B1E50601361356133603399
:100776006135613360331FC062F0636B6251636F32
:10078600626B2050621363356333623363356333C0
:10079600623321C064F0656B6451656F646B2250EF
:1007A600641365356533643365356533643320EE2C
:1007B60060F000EE40F0050EDBCFEBFFE806FCE252
:1007C6001200EDEC07F0D8B00AD026D0E3EC08F022
:1007D6001200DFEC08F01200D7EC08F01200BAC0E5
:1007E60026F0BBC027F020EEAEF001D80AD00500F7
:1007F600FA6EDE50FD6EDE50FE6EF850FF6EFA5059
:100806001200010AD8B4E8D7030AD8B4DFD7010A20
:10081600D8B4DFD7070AE0D700019C979EC0D9FF5E
:100826009FC0DAFF9E4B9F2BDF50E7EC08F00001DC
:10083600A007D8A0A107A051A111D8A404D0000EEA
:10084600276E060E03D0000E276E030E266E265068
:1008560012004BB2A5EF04F0FEEC08F09EC0D9FFE3
:100866009FC0DAFFDF6E00019E4B9F2BA007D8A02A
:10087600A107A051A111D8B404D0EEEC08F0050EE2
:1008860012009C8506D05CEC08F0120063EC08F0C0
:100896001200B4C03AF0B5C03BF020EEA8F001D883
:1008A6000AD00500FA6EDE50FD6EDE50FE6EF85080
:1008B600FF6EFA501200010AD8B4E8D7030AD8B47A
:1008C600E2D7010AD8B4DFD7070AE0D702EC08F06E
:1008D600F28EF28CDFEC04F048EC05F09BEC03F0B2
:1008E60020EE96F0050EEBCFDBFFE806FCE2030EEA
:1008F6000001956F080E946F770EE82EFED7942FA1
:10090600FCD7952FFAD700019751B3EC06F00001FA
:100916009651B3EC06F000019951B3EC06F00001D4
:100926009851B3EC06F000019951B3EC06F00001C2
:100936009851B3EC06F0010E3C6E060E3D6E46EC89
:1009460007F0CCD710EC09F09EC0D9FF9FC0DAFFA4
:10095600DF6E00019E4B9F2BA007D8A0A107A051D8
:10096600A111D8B404D0F4EC08F0050E12009C8551
:1009760006D0CBEC08F01200CFEC08F01200B4C0A1
:1009860026F0B5C027F020EEA8F001D80AD0050061
:10099600FA6EDE50FD6EDE50FE6EF850FF6EFA50B7
:1009A6001200010AD8B4E8D7030AD8B4E2D7010A7C
:1009B600D8B4DFD7070AE0D7400E3F6E2B0EE9EC1E
:1009C60006F0030E426E080E416E770EE82EFED735
:1009D600412EFCD7422EFAD700F02B0E02EC07F080
:1009E600416E41BCFAD7010E3F6E0E0EE9EC06F0E1
:1009F600020E3F6E2B0EE9EC06F0010E3F6E2D0E39
:100A0600E9EC06F0010E3F6E2E0EE9EC06F0400E04
:100A16003F6E110EE9EC06F0050E3F6E2A0EE9EC6C
:100A260006F01200A00EF66E0D0EF76E000EF86EB2
:100A360001EE00F010EE32F00900F5CFEEFFE550C2
:100A4600E150FAE1E00EF66E0E0EF76E000EF86E4D
:100A560000EEC1F010EE24F00900F5CFEEFFE550F0
:100A6600E150FAE100EE9CF0250EEE6AE806FDE1A3
:100A760000EE01F0250EEE6AE806FDE14B904B9282
:100A8600000EF86E000169EF04F021EE00F010EEA2
:100A960060F0310EDBCFE3FFE806FCE2000E00015A
:100AA600936F000E926F93BF06D093511DE1320EE5
:100AB600925DD8B01200600E9225D96E000E932179
:100AC600DA6EDF50B3EC06F0030E3C6E080E3B6E9A
:100AD600770EE82EFED73B2EFCD73C2EFAD700F039
:100AE6000001924B932BDFD712004BB2A7EF05F014
:100AF60000019C850AD078EC08F01200FCEC08F0A6
:100B0600030E120071EC08F01200B4C03AF0B5C042
:100B16003BF020EEA8F001D80AD00500FA6EDE50B0
:100B2600FD6EDE50FE6EF850FF6EFA501200010A9E
:100B3600D8B4E8D7030AD8B4DED7010AD8B4DBD7CD
:100B4600070AD8B4DBD7DED700019C850AD0DBECD8
:100B560008F012000EEC09F0030E1200D7EC08F0B4
:100B66001200B4C026F0B5C027F020EEA8F001D8D8
:100B76000AD00500FA6EDE50FD6EDE50FE6EF850AD
:100B8600FF6EFA501200010AD8B4E8D7030AD8B4A7
:100B9600DED7010AD8B4DBD7070AD8B4DBD7DED74D
:100BA6004BB26BEF06F00AEC09F000019CA707D0E8
:100BB600E2EC07F0D8A003D00F0E0001A66F0001EB
:100BC600A651020DC10EF324D96E000EF420DA6E82
:100BD60001D80AD00500FA6EDE50FD6EDE50FE6EBC
:100BE600F850FF6EFA5012000001A66F12004BB2C9
:100BF6008FEF06F000019C97020EA76F06D078ECE7
:100C060008F0120071EC08F01200B8C03AF0B9C052
:100C16003BF020EEACF001D80AD00500FA6EDE50AB
:100C2600FD6EDE50FE6EF850FF6EFA501200020A9C
:100C3600D8B4E5D7010AD8B4E2D7E4D79D9A9D98EF
:100C4600320E3A6E0E0E3B6EA5EC08F0600E3A6E52
:100C56000E0E3B6EAAEC08F0080EB86E900EAB6E48
:100C6600240EAC6E220EAF6E000EB06E000E1C6E21
:100C7600000E1B6E080E4A6E000E1A6E000E196EDE
:100C8600000E186E9D8A12003D6E010E3E6E00012A
:100C96009CB11CD09C81000E3E6E07D0010E03D085
:100CA600100E01D0020EA66F0AD03D50000AD8B42D
:100CB600F5D7010AD8B4F4D7030AD8B4F3D706ECAB
:100CC60009F026EC08F0D8A09EEC07F03E50120082
:100CD6000CEC09F000019CA707D0EDEC07F0D8A0BA
:100CE60003D00F0E0001A66F0001A651020DC10E22
:100CF600F324D96E000EF420DA6E01D80AD005006E
:100D0600FA6EDE50FD6EDE50FE6EF850FF6EFA5043
:100D160012000001A66F120000019C97020EA76F39
:100D260006D0DBEC08F01200D7EC08F01200B8C0D1
:100D360026F0B9C027F020EEACF001D80AD00500A5
:100D4600FA6EDE50FD6EDE50FE6EF850FF6EFA5003
:100D56001200020AD8B4E5D7010AD8B4E2D7E4D71C
:100D66003A6E4A50D8B4FDD79DB803D03AC0ADFF0D
:100D760012D09D981C50010D090EF324D96E000E59
:100D8600F420DA6E3AC0DFFF1C2A070E1C6402D07C
:100D9600000E1C6E4A069D8812000A0D474F54200D
:100DA600484552452E200A0D0000000000000000B4
:100DB600000000000000000000000000000000002D
:100DC600000000000000000000000000406E40C06F
:100DD60023F03FC024F01D0E03EC03F0230E3A6E01
:100DE600000E3B6E000E3D6E020E3C6E91EC07F05F
:100DF600C3EC08F0176E82EC07F0176E1200406E17
:100E06001D0E03EC03F0250E3A6E000E3B6E000E2F
:100E16003D6E010E3C6E91EC07F0405055EC08F02B
:100E2600166E82EC07F0166E25501200080E4A6008
:100E360012D01B50010D090EF324D96E000EF420BA
:100E4600DA6EDF50AD6E1B2A070E1B6402D0000E51
:100E56001B6E4A2A12009D981200ABA202D0AB98D4
:100E6600AB881A50010D010EF324D96E000EF42042
:100E7600DA6EAECFDFFF1A2A070E1A6402D0000E12
:100E86001A6E182A12003E0E3E6E000E3F6E03D0FA
:100E96004050A0EC08F03CC0F6FF3DC0F7FF3C4ACE
:100EA6003D2A0800F5CF40F04050D8B41200F0D7E4
:100EB600000E896E000E8A6E000E8B6E9268936825
:100EC600BF0E946E240E0F013A6F3F0E396F2F0E30
:100ED600386F000E616EF18E12003A10980F6C0F8B
:100EE600A00658082810F00A0C11FE10F010E210A7
:100EF600D410C610B810AE0FF40B820FF00F010E0F
:100F06003A6E00019CB108D09C939D690AEC09F0E9
:100F160008EC09F0A7C03AF03A50120000019CA56F
:100F260012003AC09EF03BC09FF03CC0A0F03DC00E
:100F3600A1F09C95120008D0000E3A6E000E3B6E92
:100F46000BEC08F0D3EC05F000019CA11200F4D7DD
:100F5600C6BA1200000EC76E280EC66E000EC56E0B
:100F6600270EC86E12004BB22EEF08F000019C87C8
:100F76009D519D25C7EC08F0030E12004BB236EFCB
:100F860008F000019C879D519D25C7EC08F0110EC5
:100F960012004BB23EEF08F000019C87D8809D35C9
:100FA600C7EC08F0050E12004BB246EF08F01EEC37
:100FB60009F000019C91000EA76F0E0E1200C5509D
:100FC600BF0B4009C56EC538E832E832010B3A6EF0
:100FD6003A301200C550BF0B4009C56EC538E8321D
:100FE600E832010B266E263012004BB28DEF08F068
:100FF60000019C87C051C7EC08F0070E1200FAECFE
:1010060008F05BEC07F04EEC08F021EC06F012005D
:101016009EB612009EB61200850EE82EFED700F090
:10102600F9D74BB294EF08F000019C9700EC09F059
:10103600040E12004BB29AEF08F000019C91000ECC
:10104600A76F0E0E12009DA603D03A6A3A2A01D067
:101056003A6A3A30120000019C879D519D25E7ECC3
:1010660008F0030E120000019C879D519D25E7ECB8
:1010760008F0110E120000019C87D8809D35E7EC20
:1010860008F0050E12001FEC09F000019C91000EFD
:10109600A76F0E0E1200720ED36E040ED26E400EA5
:1010A6009B6E12003F6E3FC0C0F0010E47EC06F08B
:1010B60012004BB2CBEF08F0EBEC08F0090E120071
:1010C6004BB2CFEF08F0EBEC08F00A0E12004BB271
:1010D600D3EF08F0EEEC08F0050E12004BB2D7EF96
:1010E60008F002EC09F0000E12004BB2DBEF08F03C
:1010F60004EC09F0010E12004BB2DFEF08F004EC2D
:1011060009F0020E12004BB2E3EF08F004EC09F00E
:10111600010E120000019C87C051E7EC08F0070E93
:10112600120000019C9712EC09F0040E1200000157
:101136009C91000EA76F0E0E12003B6E3B50B3EC57
:1011460006F012003AC048F03BC049F012003AC01F
:1011560046F03BC047F012003AC011F03BC012F017
:1011660012003AC013F03BC014F012004BB214EF59
:1011760009F0050E12004BB216EF09F0010E12002F
:10118600020E47EC06F012003A6E3AC0C9FF120092
:10119600F1EC08F0090E1200F1EC08F00A0E12004C
:1011A600F4EC08F0050E120018EC09F0000E12001F
:1011B6001AEC09F0010E12001AEC09F0020E1200E8
:1011C6001AEC09F0010E1200266E26C0C9FF1200A5
:1011D600C58AC5881200C59AC5881200C58AC58801
:1011E6001200C59AC58812001CEC09F01200D09EA8
:1011F60012009E861200C9501200C5861200C584D0
:101206001200C5821200C58012009D9612009E969D
:1012160012009E9612009E861200C9501200C586C4
:101226001200050E1200010E1200C5841200C582BE
:0A1236001200A1961200120012002F
:020000040020DA
:08000000FFFFFFFFFFFFFFFF00
:020000040030CA
:0E000000FF281F3CFFBF85FF0FC00FE00F4021
:00000001FF
